{
  "contractName": "Owned",
  "abi": [
    {
      "inputs": [],
      "payable": false,
      "stateMutability": "nonpayable",
      "type": "constructor"
    },
    {
      "constant": true,
      "inputs": [],
      "name": "ownerAddress",
      "outputs": [
        {
          "internalType": "address",
          "name": "",
          "type": "address"
        }
      ],
      "payable": false,
      "stateMutability": "view",
      "type": "function"
    }
  ],
  "bytecode": "0x608060405234801561001057600080fd5b50336000806101000a81548173ffffffffffffffffffffffffffffffffffffffff021916908373ffffffffffffffffffffffffffffffffffffffff16021790555060cf8061005f6000396000f3fe6080604052348015600f57600080fd5b506004361060285760003560e01c80638f84aa0914602d575b600080fd5b60336075565b604051808273ffffffffffffffffffffffffffffffffffffffff1673ffffffffffffffffffffffffffffffffffffffff16815260200191505060405180910390f35b6000809054906101000a900473ffffffffffffffffffffffffffffffffffffffff168156fea265627a7a72315820797be5790761c8440bb1ffb32bf7f85ca7aa1f25f191e7be8fba3d108063351d64736f6c634300050c0032",
  "source": "pragma solidity >0.4.0 <0.6.0;\n\ncontract Owned {\n    address public ownerAddress;\n\n    constructor() public {\n        ownerAddress = msg.sender;\n    }\n\n    modifier onlyOwner(){\n        require(msg.sender == ownerAddress, \"You are not owner !!\");\n        _;\n    }\n}",
  "sourcePath": "/Users/ryota/codes/time-release-evoting/contracts/Owned.sol",
  "compiler": {
    "name": "solc",
    "version": "0.5.12+commit.7709ece9.Emscripten.clang"
  },
  "schemaVersion": "3.0.19",
  "updatedAt": "2019-11-29T09:57:43.356Z",
  "devdoc": {
    "methods": {}
  },
  "userdoc": {
    "methods": {}
  }
}