{
  "contractName": "Sample",
  "abi": [
    {
      "constant": true,
      "inputs": [
        {
          "internalType": "uint256",
          "name": "",
          "type": "uint256"
        }
      ],
      "name": "ballots",
      "outputs": [
        {
          "internalType": "string",
          "name": "",
          "type": "string"
        }
      ],
      "payable": false,
      "stateMutability": "view",
      "type": "function"
    },
    {
      "constant": true,
      "inputs": [],
      "name": "end",
      "outputs": [
        {
          "internalType": "bool",
          "name": "",
          "type": "bool"
        }
      ],
      "payable": false,
      "stateMutability": "view",
      "type": "function"
    },
    {
      "constant": true,
      "inputs": [],
      "name": "inspectorAddress",
      "outputs": [
        {
          "internalType": "address",
          "name": "",
          "type": "address"
        }
      ],
      "payable": false,
      "stateMutability": "view",
      "type": "function"
    },
    {
      "constant": true,
      "inputs": [],
      "name": "ownerAddress",
      "outputs": [
        {
          "internalType": "address",
          "name": "",
          "type": "address"
        }
      ],
      "payable": false,
      "stateMutability": "view",
      "type": "function"
    },
    {
      "constant": true,
      "inputs": [
        {
          "internalType": "uint256",
          "name": "",
          "type": "uint256"
        }
      ],
      "name": "testArray",
      "outputs": [
        {
          "internalType": "string",
          "name": "",
          "type": "string"
        }
      ],
      "payable": false,
      "stateMutability": "view",
      "type": "function"
    },
    {
      "constant": true,
      "inputs": [],
      "name": "testWord",
      "outputs": [
        {
          "internalType": "string",
          "name": "",
          "type": "string"
        }
      ],
      "payable": false,
      "stateMutability": "view",
      "type": "function"
    },
    {
      "constant": true,
      "inputs": [],
      "name": "value",
      "outputs": [
        {
          "internalType": "uint256",
          "name": "",
          "type": "uint256"
        }
      ],
      "payable": false,
      "stateMutability": "view",
      "type": "function"
    },
    {
      "constant": true,
      "inputs": [
        {
          "internalType": "address",
          "name": "",
          "type": "address"
        }
      ],
      "name": "voteCount",
      "outputs": [
        {
          "internalType": "uint256",
          "name": "",
          "type": "uint256"
        }
      ],
      "payable": false,
      "stateMutability": "view",
      "type": "function"
    },
    {
      "constant": true,
      "inputs": [
        {
          "internalType": "uint256",
          "name": "",
          "type": "uint256"
        }
      ],
      "name": "voterAddressArray",
      "outputs": [
        {
          "internalType": "address",
          "name": "",
          "type": "address"
        }
      ],
      "payable": false,
      "stateMutability": "view",
      "type": "function"
    },
    {
      "constant": true,
      "inputs": [
        {
          "internalType": "address",
          "name": "",
          "type": "address"
        }
      ],
      "name": "votes",
      "outputs": [
        {
          "internalType": "string",
          "name": "",
          "type": "string"
        }
      ],
      "payable": false,
      "stateMutability": "view",
      "type": "function"
    },
    {
      "constant": false,
      "inputs": [
        {
          "internalType": "address",
          "name": "_voterAddress",
          "type": "address"
        }
      ],
      "name": "setVoterAddress",
      "outputs": [],
      "payable": false,
      "stateMutability": "nonpayable",
      "type": "function"
    },
    {
      "constant": false,
      "inputs": [
        {
          "internalType": "address",
          "name": "_inspectorAddress",
          "type": "address"
        }
      ],
      "name": "setInspectorAddress",
      "outputs": [],
      "payable": false,
      "stateMutability": "nonpayable",
      "type": "function"
    },
    {
      "constant": false,
      "inputs": [
        {
          "internalType": "string",
          "name": "_vote",
          "type": "string"
        }
      ],
      "name": "setVote",
      "outputs": [],
      "payable": false,
      "stateMutability": "nonpayable",
      "type": "function"
    },
    {
      "constant": false,
      "inputs": [],
      "name": "endVoting",
      "outputs": [],
      "payable": false,
      "stateMutability": "nonpayable",
      "type": "function"
    },
    {
      "constant": false,
      "inputs": [],
      "name": "getEndSign",
      "outputs": [
        {
          "internalType": "bool",
          "name": "",
          "type": "bool"
        }
      ],
      "payable": false,
      "stateMutability": "nonpayable",
      "type": "function"
    },
    {
      "constant": false,
      "inputs": [],
      "name": "viewResult",
      "outputs": [
        {
          "internalType": "string[]",
          "name": "",
          "type": "string[]"
        }
      ],
      "payable": false,
      "stateMutability": "nonpayable",
      "type": "function"
    },
    {
      "constant": false,
      "inputs": [
        {
          "internalType": "uint256",
          "name": "_value",
          "type": "uint256"
        }
      ],
      "name": "setValue",
      "outputs": [],
      "payable": false,
      "stateMutability": "nonpayable",
      "type": "function"
    },
    {
      "constant": false,
      "inputs": [],
      "name": "getValue",
      "outputs": [
        {
          "internalType": "uint256",
          "name": "",
          "type": "uint256"
        }
      ],
      "payable": false,
      "stateMutability": "nonpayable",
      "type": "function"
    },
    {
      "constant": false,
      "inputs": [
        {
          "internalType": "string",
          "name": "_word",
          "type": "string"
        }
      ],
      "name": "testSetWord",
      "outputs": [],
      "payable": false,
      "stateMutability": "nonpayable",
      "type": "function"
    },
    {
      "constant": true,
      "inputs": [],
      "name": "testGetArray",
      "outputs": [
        {
          "internalType": "string[]",
          "name": "",
          "type": "string[]"
        }
      ],
      "payable": false,
      "stateMutability": "view",
      "type": "function"
    },
    {
      "constant": false,
      "inputs": [
        {
          "internalType": "address",
          "name": "x",
          "type": "address"
        }
      ],
      "name": "toAsciiString",
      "outputs": [
        {
          "internalType": "string",
          "name": "",
          "type": "string"
        }
      ],
      "payable": false,
      "stateMutability": "nonpayable",
      "type": "function"
    },
    {
      "constant": false,
      "inputs": [
        {
          "internalType": "bytes1",
          "name": "b",
          "type": "bytes1"
        }
      ],
      "name": "char",
      "outputs": [
        {
          "internalType": "bytes1",
          "name": "c",
          "type": "bytes1"
        }
      ],
      "payable": false,
      "stateMutability": "nonpayable",
      "type": "function"
    },
    {
      "constant": false,
      "inputs": [
        {
          "internalType": "string",
          "name": "_a",
          "type": "string"
        },
        {
          "internalType": "string",
          "name": "_b",
          "type": "string"
        }
      ],
      "name": "strConnect",
      "outputs": [
        {
          "internalType": "string",
          "name": "",
          "type": "string"
        }
      ],
      "payable": false,
      "stateMutability": "nonpayable",
      "type": "function"
    }
  ],
  "bytecode": "0x60806040526000600660006101000a81548160ff02191690831515021790555060405180602001604052806040518060400160405280600481526020017f7465737400000000000000000000000000000000000000000000000000000000815250815250600990600162000075929190620000bc565b50336000806101000a81548173ffffffffffffffffffffffffffffffffffffffff021916908373ffffffffffffffffffffffffffffffffffffffff1602179055506200024f565b82805482825590600052602060002090810192821562000110579160200282015b828111156200010f578251829080519060200190620000fe92919062000123565b5091602001919060010190620000dd565b5b5090506200011f9190620001aa565b5090565b828054600181600116156101000203166002900490600052602060002090601f016020900481019282601f106200016657805160ff191683800117855562000197565b8280016001018555821562000197579182015b828111156200019657825182559160200191906001019062000179565b5b509050620001a69190620001db565b5090565b620001d891905b80821115620001d45760008181620001ca919062000203565b50600101620001b1565b5090565b90565b6200020091905b80821115620001fc576000816000905550600101620001e2565b5090565b90565b50805460018160011615610100020316600290046000825580601f106200022b57506200024c565b601f0160209004906000526020600020908101906200024b9190620001db565b5b50565b611a4d806200025f6000396000f3fe608060405234801561001057600080fd5b506004361061014d5760003560e01c80635c632b38116100c3578063c3403ddf1161007c578063c3403ddf146103ca578063cc0d781c146103d4578063d7b9377a146103f0578063d8bff5a51461040c578063efbe1c1c1461043c578063f1772a331461045a5761014d565b80635c632b38146102ce5780635e3cd7bc146102fe578063696f8c571461032e57806369f9ad2f1461034c57806371b7ddb81461037c5780638f84aa09146103ac5761014d565b80633fa4f245116101155780633fa4f2451461020c578063408b81ca1461022a578063463f5c30146102485780634ba5059c1461027857806353728cac1461029457806355241077146102b25761014d565b806305ad9e291461015257806320965255146101705780632c6e75981461018e57806330f8ca83146101be5780633cff0380146101ee575b600080fd5b61015a610476565b604051610167919061175f565b60405180910390f35b61017861048d565b6040516101859190611819565b60405180910390f35b6101a860048036036101a3919081019061140a565b610497565b6040516101b591906117b7565b60405180910390f35b6101d860048036036101d3919081019061149d565b6105e6565b6040516101e591906117b7565b60405180910390f35b6101f661074b565b604051610203919061173d565b60405180910390f35b61021461087c565b6040516102219190611819565b60405180910390f35b610232610882565b60405161023f9190611795565b60405180910390f35b610262600480360361025d9190810190611509565b610920565b60405161026f9190611795565b60405180910390f35b610292600480360361028d919081019061140a565b6109d9565b005b61029c610b02565b6040516102a9919061173d565b60405180910390f35b6102cc60048036036102c79190810190611509565b610beb565b005b6102e860048036036102e39190810190611509565b610bf5565b6040516102f59190611795565b60405180910390f35b6103186004803603610313919081019061140a565b610cae565b6040516103259190611819565b60405180910390f35b610336610cc6565b6040516103439190611722565b60405180910390f35b61036660048036036103619190810190611433565b610cec565b604051610373919061177a565b60405180910390f35b61039660048036036103919190810190611509565b610d20565b6040516103a39190611722565b60405180910390f35b6103b4610d5c565b6040516103c19190611722565b60405180910390f35b6103d2610d81565b005b6103ee60048036036103e9919081019061145c565b610e83565b005b61040a6004803603610405919081019061140a565b610f26565b005b6104266004803603610421919081019061140a565b611074565b6040516104339190611795565b60405180910390f35b610444611124565b604051610451919061175f565b60405180910390f35b610474600480360361046f919081019061145c565b611137565b005b6000600660009054906101000a900460ff16905090565b6000600754905090565b60608060286040519080825280601f01601f1916602001820160405280156104ce5781602001600182028038833980820191505090505b50905060008090505b60148110156105dc5760008160130360080260020a8573ffffffffffffffffffffffffffffffffffffffff168161050a57fe5b0460f81b9050600060108260f81c60ff168161052257fe5b0460f81b905060008160f81c6010028360f81c0360f81b905061054482610cec565b85856002028151811061055357fe5b60200101907effffffffffffffffffffffffffffffffffffffffffffffffffffffffffffff1916908160001a90535061058b81610cec565b85600186600202018151811061059d57fe5b60200101907effffffffffffffffffffffffffffffffffffffffffffffffffffffffffffff1916908160001a90535050505080806001019150506104d7565b5080915050919050565b606080839050606083905060608290506060829050606081518351016040519080825280601f01601f1916602001820160405280156106345781602001600182028038833980820191505090505b509050600080905060008090505b84518160ff1610156106bb57848160ff168151811061065d57fe5b602001015160f81c60f81b838360ff168151811061067757fe5b60200101907effffffffffffffffffffffffffffffffffffffffffffffffffffffffffffff1916908160001a90535081806001019250508080600101915050610642565b5060008090505b83518160ff16101561073b57838160ff16815181106106dd57fe5b602001015160f81c60f81b838360ff16815181106106f757fe5b60200101907effffffffffffffffffffffffffffffffffffffffffffffffffffffffffffff1916908160001a905350818060010192505080806001019150506106c2565b5081965050505050505092915050565b60606000600380549050905060608160405190808252806020026020018201604052801561078d57816020015b60608152602001906001900390816107785790505b5090506003805480602002602001604051908101604052809291908181526020016000905b8282101561086e578382906000526020600020018054600181600116156101000203166002900480601f01602080910402602001604051908101604052809291908181526020018280546001816001161561010002031660029004801561085a5780601f1061082f5761010080835404028352916020019161085a565b820191906000526020600020905b81548152906001019060200180831161083d57829003601f168201915b5050505050815260200190600101906107b2565b505050509050809250505090565b60075481565b60088054600181600116156101000203166002900480601f0160208091040260200160405190810160405280929190818152602001828054600181600116156101000203166002900480156109185780601f106108ed57610100808354040283529160200191610918565b820191906000526020600020905b8154815290600101906020018083116108fb57829003601f168201915b505050505081565b6009818154811061092d57fe5b906000526020600020016000915090508054600181600116156101000203166002900480601f0160208091040260200160405190810160405280929190818152602001828054600181600116156101000203166002900480156109d15780601f106109a6576101008083540402835291602001916109d1565b820191906000526020600020905b8154815290600101906020018083116109b457829003601f168201915b505050505081565b6000809054906101000a900473ffffffffffffffffffffffffffffffffffffffff1673ffffffffffffffffffffffffffffffffffffffff163373ffffffffffffffffffffffffffffffffffffffff1614610a68576040517f08c379a0000000000000000000000000000000000000000000000000000000008152600401610a5f906117f9565b60405180910390fd5b60001515600660009054906101000a900460ff16151514610abe576040517f08c379a0000000000000000000000000000000000000000000000000000000008152600401610ab5906117d9565b60405180910390fd5b80600160006101000a81548173ffffffffffffffffffffffffffffffffffffffff021916908373ffffffffffffffffffffffffffffffffffffffff16021790555050565b60606009805480602002602001604051908101604052809291908181526020016000905b82821015610be2578382906000526020600020018054600181600116156101000203166002900480601f016020809104026020016040519081016040528092919081815260200182805460018160011615610100020316600290048015610bce5780601f10610ba357610100808354040283529160200191610bce565b820191906000526020600020905b815481529060010190602001808311610bb157829003601f168201915b505050505081526020019060010190610b26565b50505050905090565b8060078190555050565b60038181548110610c0257fe5b906000526020600020016000915090508054600181600116156101000203166002900480601f016020809104026020016040519081016040528092919081815260200182805460018160011615610100020316600290048015610ca65780601f10610c7b57610100808354040283529160200191610ca6565b820191906000526020600020905b815481529060010190602001808311610c8957829003601f168201915b505050505081565b60056020528060005260406000206000915090505481565b600160009054906101000a900473ffffffffffffffffffffffffffffffffffffffff1681565b6000600a8260f81c60ff161015610d0e5760308260f81c0160f81b9050610d1b565b60578260f81c0160f81b90505b919050565b60028181548110610d2d57fe5b906000526020600020016000915054906101000a900473ffffffffffffffffffffffffffffffffffffffff1681565b6000809054906101000a900473ffffffffffffffffffffffffffffffffffffffff1681565b6000809054906101000a900473ffffffffffffffffffffffffffffffffffffffff1673ffffffffffffffffffffffffffffffffffffffff163373ffffffffffffffffffffffffffffffffffffffff1614610e10576040517f08c379a0000000000000000000000000000000000000000000000000000000008152600401610e07906117f9565b60405180910390fd5b60001515600660009054906101000a900460ff16151514610e66576040517f08c379a0000000000000000000000000000000000000000000000000000000008152600401610e5d906117d9565b60405180910390fd5b6001600660006101000a81548160ff021916908315150217905550565b60606040518060400160405280600181526020017f3a0000000000000000000000000000000000000000000000000000000000000081525090506060610ec983836105e6565b90506060610edf82610eda33610497565b6105e6565b90506009819080600181540180825580915050906001820390600052602060002001600090919290919091509080519060200190610f1e9291906112d2565b505050505050565b6000809054906101000a900473ffffffffffffffffffffffffffffffffffffffff1673ffffffffffffffffffffffffffffffffffffffff163373ffffffffffffffffffffffffffffffffffffffff1614610fb5576040517f08c379a0000000000000000000000000000000000000000000000000000000008152600401610fac906117f9565b60405180910390fd5b60001515600660009054906101000a900460ff1615151461100b576040517f08c379a0000000000000000000000000000000000000000000000000000000008152600401611002906117d9565b60405180910390fd5b60028190806001815401808255809150509060018203906000526020600020016000909192909190916101000a81548173ffffffffffffffffffffffffffffffffffffffff021916908373ffffffffffffffffffffffffffffffffffffffff1602179055505050565b60046020528060005260406000206000915090508054600181600116156101000203166002900480601f01602080910402602001604051908101604052809291908181526020018280546001816001161561010002031660029004801561111c5780601f106110f15761010080835404028352916020019161111c565b820191906000526020600020905b8154815290600101906020018083116110ff57829003601f168201915b505050505081565b600660009054906101000a900460ff1681565b60001515600660009054906101000a900460ff1615151461118d576040517f08c379a0000000000000000000000000000000000000000000000000000000008152600401611184906117d9565b60405180910390fd5b80600460003373ffffffffffffffffffffffffffffffffffffffff1673ffffffffffffffffffffffffffffffffffffffff16815260200190815260200160002090805190602001906111e09291906112d2565b506001600560003373ffffffffffffffffffffffffffffffffffffffff1673ffffffffffffffffffffffffffffffffffffffff1681526020019081526020016000206000828254019250508190555060606040518060400160405280600581526020017f203a2030780000000000000000000000000000000000000000000000000000008152509050606061127583836105e6565b9050606061128b8261128633610497565b6105e6565b905060038190806001815401808255809150509060018203906000526020600020016000909192909190915090805190602001906112ca9291906112d2565b505050505050565b828054600181600116156101000203166002900490600052602060002090601f016020900481019282601f1061131357805160ff1916838001178555611341565b82800160010185558215611341579182015b82811115611340578251825591602001919060010190611325565b5b50905061134e9190611352565b5090565b61137491905b80821115611370576000816000905550600101611358565b5090565b90565b600081359050611386816119c5565b92915050565b60008135905061139b816119dc565b92915050565b600082601f8301126113b257600080fd5b81356113c56113c082611861565b611834565b915080825260208301602083018583830111156113e157600080fd5b6113ec838284611972565b50505092915050565b600081359050611404816119f3565b92915050565b60006020828403121561141c57600080fd5b600061142a84828501611377565b91505092915050565b60006020828403121561144557600080fd5b60006114538482850161138c565b91505092915050565b60006020828403121561146e57600080fd5b600082013567ffffffffffffffff81111561148857600080fd5b611494848285016113a1565b91505092915050565b600080604083850312156114b057600080fd5b600083013567ffffffffffffffff8111156114ca57600080fd5b6114d6858286016113a1565b925050602083013567ffffffffffffffff8111156114f357600080fd5b6114ff858286016113a1565b9150509250929050565b60006020828403121561151b57600080fd5b6000611529848285016113f5565b91505092915050565b600061153e8383611621565b905092915050565b61154f816118fe565b82525050565b60006115608261189d565b61156a81856118cb565b93508360208202850161157c8561188d565b8060005b858110156115b857848403895281516115998582611532565b94506115a4836118be565b925060208a01995050600181019050611580565b50829750879550505050505092915050565b6115d381611910565b82525050565b6115e28161191c565b82525050565b60006115f3826118b3565b6115fd81856118ed565b935061160d818560208601611981565b611616816119b4565b840191505092915050565b600061162c826118a8565b61163681856118dc565b9350611646818560208601611981565b61164f816119b4565b840191505092915050565b6000611665826118a8565b61166f81856118ed565b935061167f818560208601611981565b611688816119b4565b840191505092915050565b60006116a0600d836118ed565b91507f766f74696e6720697320656e64000000000000000000000000000000000000006000830152602082019050919050565b60006116e06014836118ed565b91507f596f7520617265206e6f74206f776e65722021210000000000000000000000006000830152602082019050919050565b61171c81611968565b82525050565b60006020820190506117376000830184611546565b92915050565b600060208201905081810360008301526117578184611555565b905092915050565b600060208201905061177460008301846115ca565b92915050565b600060208201905061178f60008301846115d9565b92915050565b600060208201905081810360008301526117af818461165a565b905092915050565b600060208201905081810360008301526117d181846115e8565b905092915050565b600060208201905081810360008301526117f281611693565b9050919050565b60006020820190508181036000830152611812816116d3565b9050919050565b600060208201905061182e6000830184611713565b92915050565b6000604051905081810181811067ffffffffffffffff8211171561185757600080fd5b8060405250919050565b600067ffffffffffffffff82111561187857600080fd5b601f19601f8301169050602081019050919050565b6000819050602082019050919050565b600081519050919050565b600081519050919050565b600081519050919050565b6000602082019050919050565b600082825260208201905092915050565b600082825260208201905092915050565b600082825260208201905092915050565b600061190982611948565b9050919050565b60008115159050919050565b60007fff0000000000000000000000000000000000000000000000000000000000000082169050919050565b600073ffffffffffffffffffffffffffffffffffffffff82169050919050565b6000819050919050565b82818337600083830152505050565b60005b8381101561199f578082015181840152602081019050611984565b838111156119ae576000848401525b50505050565b6000601f19601f8301169050919050565b6119ce816118fe565b81146119d957600080fd5b50565b6119e58161191c565b81146119f057600080fd5b50565b6119fc81611968565b8114611a0757600080fd5b5056fea365627a7a723158205268bd98945763797711490f3ecdd76f1cd7cd4fd817c9e66747cf91a2091e986c6578706572696d656e74616cf564736f6c634300050c0040",
  "source": "// pragma solidity ^0.4.4;\npragma solidity >0.4.99 <0.6.0;\npragma experimental ABIEncoderV2;\n\nimport \"./Owned.sol\";\n\ncontract Sample is Owned {\n    address public inspectorAddress;\n    address[] public voterAddressArray;\n    string[] public ballots;\n    mapping(address => string) public votes;\n    mapping(address => uint) public voteCount;\n    bool public end = false;\n\n    // TEST\n    uint public value;\n    string public testWord;\n    string[] public testArray=[\"test\"];\n\n    //TODO:\n    modifier isVotingEnd(){\n        require(end == false, \"voting is end\");\n        _;\n    }\n\n\n    // set voter address\n    function setVoterAddress(address _voterAddress) onlyOwner isVotingEnd public {\n        //TODO:onlyOwner\n        voterAddressArray.push(_voterAddress);\n    }\n\n    // set inspector address\n    function setInspectorAddress(address _inspectorAddress) onlyOwner isVotingEnd public {\n        //TODO:onlyOwner\n        inspectorAddress = _inspectorAddress;\n    }\n\n    // create and send vote\n    function setVote(string memory _vote) public isVotingEnd {\n        // \n        // uint flag = 0;\n        //TODO:\n        // require(voteCount[msg.sender] == 0, \"Double Voting.\");\n        // for(uint i = 0; i < voterAddressArray.length; i++){\n        //     if(msg.sender == voterAddressArray[i]){\n        //         flag = 1;\n        //     }\n        // }\n        // require(flag == 1, \"Your address isn't valid.\");\n        votes[msg.sender] = _vote;\n        voteCount[msg.sender] += 1;\n        string memory space = \" : 0x\";\n        string memory vote = strConnect(_vote, space);\n\n        string memory res = strConnect(vote,toAsciiString(msg.sender));\n        ballots.push(res);\n    }\n\n    function endVoting()  onlyOwner isVotingEnd public {\n        //TODO: onlyOwner\n        end = true;\n    }\n\n    function getEndSign() public returns(bool){\n        return end;\n    }\n\n    function viewResult() public  returns(string[] memory){\n        //TODO:require\n        // require(end == true, \"Voting is not END.\");\n        //TODO:\n        //TODO:\n        // require(voteCount[msg.sender] == 1, \"You should vote.\");\n        uint array_length = ballots.length;\n        string[] memory arrayMemory = new string[](array_length);\n        arrayMemory = ballots;\n\n        return arrayMemory;\n    }\n\n    function setValue(uint _value) public{\n        value = _value;\n    }\n\n    function getValue() public returns(uint){\n        return value;\n    }\n\n    // function getBallotResults(uint _index) public returns(address, uint){\n    //     return (BallotResults)\n    // }\n    function testSetWord(string memory _word) public {\n        //TODO:\n        string memory space = \":\";\n        string memory word = strConnect(_word, space);\n        string memory res = strConnect(word, toAsciiString(msg.sender));\n        testArray.push(res);\n    }\n\n    function testGetArray() public view returns(string[] memory)  {\n        return testArray;\n    }\n\n    function toAsciiString(address  x) public returns (string memory) {\n        bytes memory s = new bytes(40);\n        for (uint i = 0; i < 20; i++) {\n            byte b = byte(uint8(uint(x) / (2**(8*(19 - i)))));\n            byte hi = byte(uint8(b) / 16);\n            byte lo = byte(uint8(b) - 16 * uint8(hi));\n            s[2*i] = char(hi);\n            s[2*i+1] = char(lo);\n        }\n        return string(s);\n    }\n\n    function char(byte b) public returns (byte c) {\n        if (uint8(b) < 10) return byte(uint8(b) + 0x30);\n        else return byte(uint8(b) + 0x57);\n    }\n\n    function strConnect(string memory _a, string memory _b) public  returns(string memory){\n\n        string memory str1 = _a;\n        string memory str2 = _b;\n        bytes memory strbyte1 = bytes(str1);\n        bytes memory strbyte2 = bytes(str2);\n\n        bytes memory str = new bytes(strbyte1.length + strbyte2.length);\n\n        uint8 point = 0;\n\n        for(uint8 j = 0; j < strbyte1.length;j++){\n            str[point] = strbyte1[j];\n            point++;\n        }\n        for(uint8 k = 0; k < strbyte2.length;k++){\n            str[point] = strbyte2[k];\n            point++;\n        }\n        return string(str);\n    }\n\n}\n",
  "sourcePath": "/Users/ryota/codes/time-release-evoting/contracts/Sample.sol",
  "compiler": {
    "name": "solc",
    "version": "0.5.12+commit.7709ece9.Emscripten.clang"
  },
  "schemaVersion": "3.0.19",
  "updatedAt": "2019-11-26T16:05:17.368Z",
  "networkType": "ethereum",
  "devdoc": {
    "methods": {}
  },
  "userdoc": {
    "methods": {}
  }
}