{
  "contractName": "Sample",
  "abi": [
    {
      "constant": true,
      "inputs": [],
      "name": "value",
      "outputs": [
        {
          "name": "",
          "type": "uint256"
        }
      ],
      "payable": false,
      "stateMutability": "view",
      "type": "function"
    },
    {
      "constant": true,
      "inputs": [
        {
          "name": "",
          "type": "uint256"
        }
      ],
      "name": "ballots",
      "outputs": [
        {
          "name": "",
          "type": "string"
        }
      ],
      "payable": false,
      "stateMutability": "view",
      "type": "function"
    },
    {
      "constant": true,
      "inputs": [
        {
          "name": "",
          "type": "address"
        }
      ],
      "name": "voteCount",
      "outputs": [
        {
          "name": "",
          "type": "uint256"
        }
      ],
      "payable": false,
      "stateMutability": "view",
      "type": "function"
    },
    {
      "constant": true,
      "inputs": [],
      "name": "inspectorAddress",
      "outputs": [
        {
          "name": "",
          "type": "address"
        }
      ],
      "payable": false,
      "stateMutability": "view",
      "type": "function"
    },
    {
      "constant": true,
      "inputs": [
        {
          "name": "",
          "type": "uint256"
        }
      ],
      "name": "voterAddressArray",
      "outputs": [
        {
          "name": "",
          "type": "address"
        }
      ],
      "payable": false,
      "stateMutability": "view",
      "type": "function"
    },
    {
      "constant": true,
      "inputs": [],
      "name": "ownerAddress",
      "outputs": [
        {
          "name": "",
          "type": "address"
        }
      ],
      "payable": false,
      "stateMutability": "view",
      "type": "function"
    },
    {
      "constant": true,
      "inputs": [
        {
          "name": "",
          "type": "address"
        }
      ],
      "name": "votes",
      "outputs": [
        {
          "name": "",
          "type": "string"
        }
      ],
      "payable": false,
      "stateMutability": "view",
      "type": "function"
    },
    {
      "constant": true,
      "inputs": [],
      "name": "end",
      "outputs": [
        {
          "name": "",
          "type": "bool"
        }
      ],
      "payable": false,
      "stateMutability": "view",
      "type": "function"
    },
    {
      "constant": false,
      "inputs": [
        {
          "name": "_voterAddress",
          "type": "address"
        }
      ],
      "name": "setVoterAddress",
      "outputs": [],
      "payable": false,
      "stateMutability": "nonpayable",
      "type": "function"
    },
    {
      "constant": false,
      "inputs": [
        {
          "name": "_inspectorAddress",
          "type": "address"
        }
      ],
      "name": "setInspectorAddress",
      "outputs": [],
      "payable": false,
      "stateMutability": "nonpayable",
      "type": "function"
    },
    {
      "constant": false,
      "inputs": [
        {
          "name": "_vote",
          "type": "string"
        }
      ],
      "name": "setVote",
      "outputs": [],
      "payable": false,
      "stateMutability": "nonpayable",
      "type": "function"
    },
    {
      "constant": false,
      "inputs": [],
      "name": "endVoting",
      "outputs": [],
      "payable": false,
      "stateMutability": "nonpayable",
      "type": "function"
    },
    {
      "constant": false,
      "inputs": [],
      "name": "getEndSign",
      "outputs": [
        {
          "name": "",
          "type": "bool"
        }
      ],
      "payable": false,
      "stateMutability": "nonpayable",
      "type": "function"
    },
    {
      "constant": false,
      "inputs": [],
      "name": "viewResult",
      "outputs": [
        {
          "name": "",
          "type": "string[]"
        }
      ],
      "payable": false,
      "stateMutability": "nonpayable",
      "type": "function"
    },
    {
      "constant": false,
      "inputs": [
        {
          "name": "_value",
          "type": "uint256"
        }
      ],
      "name": "setValue",
      "outputs": [],
      "payable": false,
      "stateMutability": "nonpayable",
      "type": "function"
    },
    {
      "constant": false,
      "inputs": [],
      "name": "getValue",
      "outputs": [
        {
          "name": "",
          "type": "uint256"
        }
      ],
      "payable": false,
      "stateMutability": "nonpayable",
      "type": "function"
    }
  ],
  "bytecode": "0x608060405260408051908101604052806040805190810160405280600581526020017f746573743100000000000000000000000000000000000000000000000000000081525081526020016040805190810160405280600581526020017f7465737432000000000000000000000000000000000000000000000000000000815250815250600390600262000095929190620000f7565b506000600660006101000a81548160ff021916908315150217905550336000806101000a81548173ffffffffffffffffffffffffffffffffffffffff021916908373ffffffffffffffffffffffffffffffffffffffff1602179055506200028a565b8280548282559060005260206000209081019282156200014b579160200282015b828111156200014a578251829080519060200190620001399291906200015e565b509160200191906001019062000118565b5b5090506200015a9190620001e5565b5090565b828054600181600116156101000203166002900490600052602060002090601f016020900481019282601f10620001a157805160ff1916838001178555620001d2565b82800160010185558215620001d2579182015b82811115620001d1578251825591602001919060010190620001b4565b5b509050620001e1919062000216565b5090565b6200021391905b808211156200020f57600081816200020591906200023e565b50600101620001ec565b5090565b90565b6200023b91905b80821115620002375760008160009055506001016200021d565b5090565b90565b50805460018160011615610100020316600290046000825580601f1062000266575062000287565b601f01602090049060005260206000209081019062000286919062000216565b5b50565b6113b4806200029a6000396000f3fe6080604052600436106100e6576000357c0100000000000000000000000000000000000000000000000000000000900463ffffffff16806305ad9e29146100eb57806320965255146101165780633cff0380146101415780633fa4f2451461016c5780634ba5059c1461019757806355241077146101c05780635c632b38146101e95780635e3cd7bc14610226578063696f8c571461026357806371b7ddb81461028e5780638f84aa09146102cb578063c3403ddf146102f6578063d7b9377a1461030d578063d8bff5a514610336578063efbe1c1c14610373578063f1772a331461039e575b600080fd5b3480156100f757600080fd5b506101006103c7565b60405161010d9190611162565b60405180910390f35b34801561012257600080fd5b5061012b610435565b604051610138919061121f565b60405180910390f35b34801561014d57600080fd5b5061015661043f565b6040516101639190611140565b60405180910390f35b34801561017857600080fd5b50610181610570565b60405161018e919061121f565b60405180910390f35b3480156101a357600080fd5b506101be60048036036101b99190810190610ee5565b610576565b005b3480156101cc57600080fd5b506101e760048036036101e29190810190610f4f565b6106a3565b005b3480156101f557600080fd5b50610210600480360361020b9190810190610f4f565b6106ad565b60405161021d919061117d565b60405180910390f35b34801561023257600080fd5b5061024d60048036036102489190810190610ee5565b610768565b60405161025a919061121f565b60405180910390f35b34801561026f57600080fd5b50610278610780565b6040516102859190611125565b60405180910390f35b34801561029a57600080fd5b506102b560048036036102b09190810190610f4f565b6107a6565b6040516102c29190611125565b60405180910390f35b3480156102d757600080fd5b506102e06107e4565b6040516102ed9190611125565b60405180910390f35b34801561030257600080fd5b5061030b610809565b005b34801561031957600080fd5b50610334600480360361032f9190810190610ee5565b61090f565b005b34801561034257600080fd5b5061035d60048036036103589190810190610ee5565b610a61565b60405161036a919061117d565b60405180910390f35b34801561037f57600080fd5b50610388610b11565b6040516103959190611162565b60405180910390f35b3480156103aa57600080fd5b506103c560048036036103c09190810190610f0e565b610b24565b005b6000801515600660009054906101000a900460ff161515141515610420576040517f08c379a00000000000000000000000000000000000000000000000000000000081526004016104179061119f565b60405180910390fd5b600660009054906101000a900460ff16905090565b6000600754905090565b60606000600380549050905060608160405190808252806020026020018201604052801561048157816020015b606081526020019060019003908161046c5790505b5090506003805480602002602001604051908101604052809291908181526020016000905b82821015610562578382906000526020600020018054600181600116156101000203166002900480601f01602080910402602001604051908101604052809291908181526020018280546001816001161561010002031660029004801561054e5780601f106105235761010080835404028352916020019161054e565b820191906000526020600020905b81548152906001019060200180831161053157829003601f168201915b5050505050815260200190600101906104a6565b505050509050809250505090565b60075481565b6000809054906101000a900473ffffffffffffffffffffffffffffffffffffffff1673ffffffffffffffffffffffffffffffffffffffff163373ffffffffffffffffffffffffffffffffffffffff16141515610607576040517f08c379a00000000000000000000000000000000000000000000000000000000081526004016105fe906111bf565b60405180910390fd5b60001515600660009054906101000a900460ff16151514151561065f576040517f08c379a00000000000000000000000000000000000000000000000000000000081526004016106569061119f565b60405180910390fd5b80600160006101000a81548173ffffffffffffffffffffffffffffffffffffffff021916908373ffffffffffffffffffffffffffffffffffffffff16021790555050565b8060078190555050565b6003818154811015156106bc57fe5b906000526020600020016000915090508054600181600116156101000203166002900480601f0160208091040260200160405190810160405280929190818152602001828054600181600116156101000203166002900480156107605780601f1061073557610100808354040283529160200191610760565b820191906000526020600020905b81548152906001019060200180831161074357829003601f168201915b505050505081565b60056020528060005260406000206000915090505481565b600160009054906101000a900473ffffffffffffffffffffffffffffffffffffffff1681565b6002818154811015156107b557fe5b906000526020600020016000915054906101000a900473ffffffffffffffffffffffffffffffffffffffff1681565b6000809054906101000a900473ffffffffffffffffffffffffffffffffffffffff1681565b6000809054906101000a900473ffffffffffffffffffffffffffffffffffffffff1673ffffffffffffffffffffffffffffffffffffffff163373ffffffffffffffffffffffffffffffffffffffff1614151561089a576040517f08c379a0000000000000000000000000000000000000000000000000000000008152600401610891906111bf565b60405180910390fd5b60001515600660009054906101000a900460ff1615151415156108f2576040517f08c379a00000000000000000000000000000000000000000000000000000000081526004016108e99061119f565b60405180910390fd5b6001600660006101000a81548160ff021916908315150217905550565b6000809054906101000a900473ffffffffffffffffffffffffffffffffffffffff1673ffffffffffffffffffffffffffffffffffffffff163373ffffffffffffffffffffffffffffffffffffffff161415156109a0576040517f08c379a0000000000000000000000000000000000000000000000000000000008152600401610997906111bf565b60405180910390fd5b60001515600660009054906101000a900460ff1615151415156109f8576040517f08c379a00000000000000000000000000000000000000000000000000000000081526004016109ef9061119f565b60405180910390fd5b60028190806001815401808255809150509060018203906000526020600020016000909192909190916101000a81548173ffffffffffffffffffffffffffffffffffffffff021916908373ffffffffffffffffffffffffffffffffffffffff1602179055505050565b60046020528060005260406000206000915090508054600181600116156101000203166002900480601f016020809104026020016040519081016040528092919081815260200182805460018160011615610100020316600290048015610b095780601f10610ade57610100808354040283529160200191610b09565b820191906000526020600020905b815481529060010190602001808311610aec57829003601f168201915b505050505081565b600660009054906101000a900460ff1681565b60001515600660009054906101000a900460ff161515141515610b7c576040517f08c379a0000000000000000000000000000000000000000000000000000000008152600401610b739061119f565b60405180910390fd5b60008090506000600560003373ffffffffffffffffffffffffffffffffffffffff1673ffffffffffffffffffffffffffffffffffffffff16815260200190815260200160002054141515610c05576040517f08c379a0000000000000000000000000000000000000000000000000000000008152600401610bfc906111ff565b60405180910390fd5b60008090505b600280549050811015610c9757600281815481101515610c2757fe5b9060005260206000200160009054906101000a900473ffffffffffffffffffffffffffffffffffffffff1673ffffffffffffffffffffffffffffffffffffffff163373ffffffffffffffffffffffffffffffffffffffff161415610c8a57600191505b8080600101915050610c0b565b50600181141515610cdd576040517f08c379a0000000000000000000000000000000000000000000000000000000008152600401610cd4906111df565b60405180910390fd5b81600460003373ffffffffffffffffffffffffffffffffffffffff1673ffffffffffffffffffffffffffffffffffffffff1681526020019081526020016000209080519060200190610d30929190610dc2565b506001600560003373ffffffffffffffffffffffffffffffffffffffff1673ffffffffffffffffffffffffffffffffffffffff168152602001908152602001600020600082825401925050819055506003829080600181540180825580915050906001820390600052602060002001600090919290919091509080519060200190610dbc929190610dc2565b50505050565b828054600181600116156101000203166002900490600052602060002090601f016020900481019282601f10610e0357805160ff1916838001178555610e31565b82800160010185558215610e31579182015b82811115610e30578251825591602001919060010190610e15565b5b509050610e3e9190610e42565b5090565b610e6491905b80821115610e60576000816000905550600101610e48565b5090565b90565b6000610e73823561130b565b905092915050565b600082601f8301121515610e8e57600080fd5b8135610ea1610e9c82611267565b61123a565b91508082526020830160208301858383011115610ebd57600080fd5b610ec8838284611327565b50505092915050565b6000610edd823561131d565b905092915050565b600060208284031215610ef757600080fd5b6000610f0584828501610e67565b91505092915050565b600060208284031215610f2057600080fd5b600082013567ffffffffffffffff811115610f3a57600080fd5b610f4684828501610e7b565b91505092915050565b600060208284031215610f6157600080fd5b6000610f6f84828501610ed1565b91505092915050565b610f81816112c3565b82525050565b6000610f92826112a0565b80845260208401935083602082028501610fab85611293565b60005b84811015610fe4578383038852610fc6838351611004565b9250610fd1826112b6565b9150602088019750600181019050610fae565b508196508694505050505092915050565b610ffe816112d5565b82525050565b600061100f826112ab565b808452611023816020860160208601611336565b61102c81611369565b602085010191505092915050565b6000600d82527f766f74696e6720697320656e64000000000000000000000000000000000000006020830152604082019050919050565b6000601482527f596f7520617265206e6f74206f776e65722021210000000000000000000000006020830152604082019050919050565b6000601982527f596f757220616464726573732069736e27742076616c69642e000000000000006020830152604082019050919050565b6000600e82527f446f75626c6520566f74696e672e0000000000000000000000000000000000006020830152604082019050919050565b61111f81611301565b82525050565b600060208201905061113a6000830184610f78565b92915050565b6000602082019050818103600083015261115a8184610f87565b905092915050565b60006020820190506111776000830184610ff5565b92915050565b600060208201905081810360008301526111978184611004565b905092915050565b600060208201905081810360008301526111b88161103a565b9050919050565b600060208201905081810360008301526111d881611071565b9050919050565b600060208201905081810360008301526111f8816110a8565b9050919050565b60006020820190508181036000830152611218816110df565b9050919050565b60006020820190506112346000830184611116565b92915050565b6000604051905081810181811067ffffffffffffffff8211171561125d57600080fd5b8060405250919050565b600067ffffffffffffffff82111561127e57600080fd5b601f19601f8301169050602081019050919050565b6000602082019050919050565b600081519050919050565b600081519050919050565b6000602082019050919050565b60006112ce826112e1565b9050919050565b60008115159050919050565b600073ffffffffffffffffffffffffffffffffffffffff82169050919050565b6000819050919050565b6000611316826112e1565b9050919050565b6000819050919050565b82818337600083830152505050565b60005b83811015611354578082015181840152602081019050611339565b83811115611363576000848401525b50505050565b6000601f19601f830116905091905056fea265627a7a72305820077172f0cd5d1b83bf5e3aac339cd8e6f4c6694de310ccc735d3f8ff10fbbe0d6c6578706572696d656e74616cf50037",
  "source": "pragma solidity >0.4.99 <0.6.0;\npragma experimental ABIEncoderV2;\n\nimport \"./Owned.sol\";\n\ncontract Sample is Owned {\n    address public inspectorAddress;\n    address[] public voterAddressArray;\n    string[] public ballots = [\"test1\",\"test2\"];\n    mapping(address => string) public votes;\n    mapping(address => uint) public voteCount;\n    bool public end = false;\n\n    uint public value;\n\n    //TODO:これを全ての関数にあとでつける\n    modifier isVotingEnd(){\n        require(end == false, \"voting is end\");\n        _;\n    }\n\n    // set voter address\n    function setVoterAddress(address _voterAddress) onlyOwner isVotingEnd public {\n        //TODO:onlyOwner\n        voterAddressArray.push(_voterAddress);\n    }\n\n    // set inspector address\n    function setInspectorAddress(address _inspectorAddress) onlyOwner isVotingEnd public {\n        //TODO:onlyOwner\n        inspectorAddress = _inspectorAddress;\n    }\n\n    // create and send vote\n    function setVote(string memory _vote) public isVotingEnd {\n        // 二重投票防止とアドレス選定\n        uint flag = 0;\n        require(voteCount[msg.sender] == 0, \"Double Voting.\");\n        for(uint i = 0; i < voterAddressArray.length; i++){\n            if(msg.sender == voterAddressArray[i]){\n                flag = 1;\n            }\n        }\n        require(flag == 1, \"Your address isn't valid.\");\n        votes[msg.sender] = _vote;\n        voteCount[msg.sender] += 1;\n        ballots.push(_vote);\n    }\n\n    function endVoting()  onlyOwner isVotingEnd public {\n        //TODO: onlyOwnerをつけること\n        end = true;\n    }\n\n    function getEndSign() public isVotingEnd returns(bool){\n        return end;\n    }\n\n    function viewResult() public returns(string[] memory){\n        //TODO:テスト省略のためにrequireを外しているので注意\n        // require(end == true, \"Voting is not END.\");\n        uint array_length = ballots.length;\n        string[] memory arrayMemory = new string[](array_length);\n        arrayMemory = ballots;\n\n        return arrayMemory;\n    }\n\n    function setValue(uint _value) public{\n        value = _value;\n    }\n\n    function getValue() public returns(uint){\n        return value;\n    }\n}",
  "sourcePath": "/Users/andy/evoting-private-chain/contracts/Sample.sol",
  "compiler": {
    "name": "solc",
    "version": "0.5.0+commit.1d4f565a.Emscripten.clang"
  },
  "schemaVersion": "3.0.9",
  "updatedAt": "2019-05-14T05:44:55.384Z",
  "devdoc": {
    "methods": {}
  },
  "userdoc": {
    "methods": {}
  }
}