{
  "contractName": "Sample",
  "abi": [
    {
      "constant": true,
      "inputs": [
        {
          "name": "",
          "type": "uint256"
        }
      ],
      "name": "ballots",
      "outputs": [
        {
          "name": "",
          "type": "string"
        }
      ],
      "payable": false,
      "stateMutability": "view",
      "type": "function"
    },
    {
      "constant": true,
      "inputs": [
        {
          "name": "",
          "type": "address"
        }
      ],
      "name": "voteCount",
      "outputs": [
        {
          "name": "",
          "type": "uint256"
        }
      ],
      "payable": false,
      "stateMutability": "view",
      "type": "function"
    },
    {
      "constant": true,
      "inputs": [],
      "name": "inspectorAddress",
      "outputs": [
        {
          "name": "",
          "type": "address"
        }
      ],
      "payable": false,
      "stateMutability": "view",
      "type": "function"
    },
    {
      "constant": true,
      "inputs": [
        {
          "name": "",
          "type": "uint256"
        }
      ],
      "name": "voterAddressArray",
      "outputs": [
        {
          "name": "",
          "type": "address"
        }
      ],
      "payable": false,
      "stateMutability": "view",
      "type": "function"
    },
    {
      "constant": true,
      "inputs": [],
      "name": "ownerAddress",
      "outputs": [
        {
          "name": "",
          "type": "address"
        }
      ],
      "payable": false,
      "stateMutability": "view",
      "type": "function"
    },
    {
      "constant": true,
      "inputs": [
        {
          "name": "",
          "type": "address"
        }
      ],
      "name": "votes",
      "outputs": [
        {
          "name": "",
          "type": "string"
        }
      ],
      "payable": false,
      "stateMutability": "view",
      "type": "function"
    },
    {
      "constant": false,
      "inputs": [
        {
          "name": "_voterAddress",
          "type": "address"
        }
      ],
      "name": "setVoterAddress",
      "outputs": [],
      "payable": false,
      "stateMutability": "nonpayable",
      "type": "function"
    },
    {
      "constant": false,
      "inputs": [
        {
          "name": "_inspectorAddress",
          "type": "address"
        }
      ],
      "name": "setInspectorAddress",
      "outputs": [],
      "payable": false,
      "stateMutability": "nonpayable",
      "type": "function"
    },
    {
      "constant": false,
      "inputs": [
        {
          "name": "_vote",
          "type": "string"
        }
      ],
      "name": "setVote",
      "outputs": [],
      "payable": false,
      "stateMutability": "nonpayable",
      "type": "function"
    },
    {
      "constant": false,
      "inputs": [],
      "name": "endVoting",
      "outputs": [],
      "payable": false,
      "stateMutability": "nonpayable",
      "type": "function"
    },
    {
      "constant": false,
      "inputs": [],
      "name": "viewResult",
      "outputs": [
        {
          "name": "",
          "type": "string[]"
        }
      ],
      "payable": false,
      "stateMutability": "nonpayable",
      "type": "function"
    }
  ],
  "bytecode": "0x60806040526000600660006101000a81548160ff021916908315150217905550336000806101000a81548173ffffffffffffffffffffffffffffffffffffffff021916908373ffffffffffffffffffffffffffffffffffffffff160217905550610eb38061006e6000396000f3006080604052600436106100af576000357c0100000000000000000000000000000000000000000000000000000000900463ffffffff1680633cff0380146100b45780634ba5059c146100df5780635c632b38146101085780635e3cd7bc14610145578063696f8c571461018257806371b7ddb8146101ad5780638f84aa09146101ea578063c3403ddf14610215578063d7b9377a1461022c578063d8bff5a514610255578063f1772a3314610292575b600080fd5b3480156100c057600080fd5b506100c96102bb565b6040516100d69190610c8a565b60405180910390f35b3480156100eb57600080fd5b5061010660048036036101019190810190610a75565b6103a4565b005b34801561011457600080fd5b5061012f600480360361012a9190810190610adf565b610479565b60405161013c9190610cac565b60405180910390f35b34801561015157600080fd5b5061016c60048036036101679190810190610a75565b610534565b6040516101799190610d2e565b60405180910390f35b34801561018e57600080fd5b5061019761054c565b6040516101a49190610c6f565b60405180910390f35b3480156101b957600080fd5b506101d460048036036101cf9190810190610adf565b610572565b6040516101e19190610c6f565b60405180910390f35b3480156101f657600080fd5b506101ff6105b0565b60405161020c9190610c6f565b60405180910390f35b34801561022157600080fd5b5061022a6105d5565b005b34801561023857600080fd5b50610253600480360361024e9190810190610a75565b6105f2565b005b34801561026157600080fd5b5061027c60048036036102779190810190610a75565b61065b565b6040516102899190610cac565b60405180910390f35b34801561029e57600080fd5b506102b960048036036102b49190810190610a9e565b61070b565b005b60606003805480602002602001604051908101604052809291908181526020016000905b8282101561039b578382906000526020600020018054600181600116156101000203166002900480601f0160208091040260200160405190810160405280929190818152602001828054600181600116156101000203166002900480156103875780601f1061035c57610100808354040283529160200191610387565b820191906000526020600020905b81548152906001019060200180831161036a57829003601f168201915b5050505050815260200190600101906102df565b50505050905090565b6000809054906101000a900473ffffffffffffffffffffffffffffffffffffffff1673ffffffffffffffffffffffffffffffffffffffff163373ffffffffffffffffffffffffffffffffffffffff16141515610435576040517f08c379a000000000000000000000000000000000000000000000000000000000815260040161042c90610cce565b60405180910390fd5b80600160006101000a81548173ffffffffffffffffffffffffffffffffffffffff021916908373ffffffffffffffffffffffffffffffffffffffff16021790555050565b60038181548110151561048857fe5b906000526020600020016000915090508054600181600116156101000203166002900480601f01602080910402602001604051908101604052809291908181526020018280546001816001161561010002031660029004801561052c5780601f106105015761010080835404028352916020019161052c565b820191906000526020600020905b81548152906001019060200180831161050f57829003601f168201915b505050505081565b60056020528060005260406000206000915090505481565b600160009054906101000a900473ffffffffffffffffffffffffffffffffffffffff1681565b60028181548110151561058157fe5b906000526020600020016000915054906101000a900473ffffffffffffffffffffffffffffffffffffffff1681565b6000809054906101000a900473ffffffffffffffffffffffffffffffffffffffff1681565b6001600660006101000a81548160ff021916908315150217905550565b60028190806001815401808255809150509060018203906000526020600020016000909192909190916101000a81548173ffffffffffffffffffffffffffffffffffffffff021916908373ffffffffffffffffffffffffffffffffffffffff1602179055505050565b60046020528060005260406000206000915090508054600181600116156101000203166002900480601f0160208091040260200160405190810160405280929190818152602001828054600181600116156101000203166002900480156107035780601f106106d857610100808354040283529160200191610703565b820191906000526020600020905b8154815290600101906020018083116106e657829003601f168201915b505050505081565b600080600091506000600560003373ffffffffffffffffffffffffffffffffffffffff1673ffffffffffffffffffffffffffffffffffffffff16815260200190815260200160002054141515610796576040517f08c379a000000000000000000000000000000000000000000000000000000000815260040161078d90610d0e565b60405180910390fd5b600090505b600280549050811015610827576002818154811015156107b757fe5b9060005260206000200160009054906101000a900473ffffffffffffffffffffffffffffffffffffffff1673ffffffffffffffffffffffffffffffffffffffff163373ffffffffffffffffffffffffffffffffffffffff16141561081a57600191505b808060010191505061079b565b60018214151561086c576040517f08c379a000000000000000000000000000000000000000000000000000000000815260040161086390610cee565b60405180910390fd5b82600460003373ffffffffffffffffffffffffffffffffffffffff1673ffffffffffffffffffffffffffffffffffffffff16815260200190815260200160002090805190602001906108bf929190610952565b506001600560003373ffffffffffffffffffffffffffffffffffffffff1673ffffffffffffffffffffffffffffffffffffffff16815260200190815260200160002060008282540192505081905550600383908060018154018082558091505090600182039060005260206000200160009091929091909150908051906020019061094b929190610952565b5050505050565b828054600181600116156101000203166002900490600052602060002090601f016020900481019282601f1061099357805160ff19168380011785556109c1565b828001600101855582156109c1579182015b828111156109c05782518255916020019190600101906109a5565b5b5090506109ce91906109d2565b5090565b6109f491905b808211156109f05760008160009055506001016109d8565b5090565b90565b6000610a038235610dfc565b905092915050565b600082601f8301121515610a1e57600080fd5b8135610a31610a2c82610d76565b610d49565b91508082526020830160208301858383011115610a4d57600080fd5b610a58838284610e26565b50505092915050565b6000610a6d8235610e1c565b905092915050565b600060208284031215610a8757600080fd5b6000610a95848285016109f7565b91505092915050565b600060208284031215610ab057600080fd5b600082013567ffffffffffffffff811115610aca57600080fd5b610ad684828501610a0b565b91505092915050565b600060208284031215610af157600080fd5b6000610aff84828501610a61565b91505092915050565b610b1181610dd2565b82525050565b6000610b2282610daf565b80845260208401935083602082028501610b3b85610da2565b60005b84811015610b74578383038852610b56838351610b85565b9250610b6182610dc5565b9150602088019750600181019050610b3e565b508196508694505050505092915050565b6000610b9082610dba565b808452610ba4816020860160208601610e35565b610bad81610e68565b602085010191505092915050565b6000601482527f596f7520617265206e6f74206f776e65722021210000000000000000000000006020830152604082019050919050565b6000601982527f596f757220616464726573732069736e27742076616c69642e000000000000006020830152604082019050919050565b6000600e82527f446f75626c6520566f74696e672e0000000000000000000000000000000000006020830152604082019050919050565b610c6981610df2565b82525050565b6000602082019050610c846000830184610b08565b92915050565b60006020820190508181036000830152610ca48184610b17565b905092915050565b60006020820190508181036000830152610cc68184610b85565b905092915050565b60006020820190508181036000830152610ce781610bbb565b9050919050565b60006020820190508181036000830152610d0781610bf2565b9050919050565b60006020820190508181036000830152610d2781610c29565b9050919050565b6000602082019050610d436000830184610c60565b92915050565b6000604051905081810181811067ffffffffffffffff82111715610d6c57600080fd5b8060405250919050565b600067ffffffffffffffff821115610d8d57600080fd5b601f19601f8301169050602081019050919050565b6000602082019050919050565b600081519050919050565b600081519050919050565b6000602082019050919050565b600073ffffffffffffffffffffffffffffffffffffffff82169050919050565b6000819050919050565b600073ffffffffffffffffffffffffffffffffffffffff82169050919050565b6000819050919050565b82818337600083830152505050565b60005b83811015610e53578082015181840152602081019050610e38565b83811115610e62576000848401525b50505050565b6000601f19601f83011690509190505600a265627a7a72305820335d9df378f0725632f9b71191e628d7a57d3173099364a0fafd81f7f0f8bb4e6c6578706572696d656e74616cf50037",
  "source": "pragma solidity >0.4.0 <0.6.0;\npragma experimental ABIEncoderV2;\n\nimport \"./Owned.sol\";\n\ncontract Sample is Owned {\n    address public inspectorAddress;\n    address[] public voterAddressArray;\n    string[] public ballots;\n    mapping(address => string) public votes;\n    mapping(address => uint) public voteCount;\n    bool private end = false;\n\n    // set voter address\n    function setVoterAddress(address _voterAddress) public {\n        //TODO:onlyOwner\n        voterAddressArray.push(_voterAddress);\n    }\n\n    // set inspector address\n    function setInspectorAddress(address _inspectorAddress) public onlyOwner {\n        //TODO:onlyOwner\n        inspectorAddress = _inspectorAddress;\n    }\n\n    // create and send vote\n    function setVote(string memory _vote) public {\n        // 二重投票防止とアドレス選定\n        uint flag = 0;\n        require(voteCount[msg.sender] == 0, \"Double Voting.\");\n        for(uint i = 0; i < voterAddressArray.length; i++){\n            if(msg.sender == voterAddressArray[i]){\n                flag = 1;\n            }\n        }\n        require(flag == 1, \"Your address isn't valid.\");\n        votes[msg.sender] = _vote;\n        voteCount[msg.sender] += 1;\n        ballots.push(_vote);\n    }\n\n    // sign by organizer\n    // sign by inspector\n    // view result\n    // function viewResultTest() public returns(string memory){\n    //     return \"result\";\n    // }\n\n    function endVoting() public {\n        //TODO: onlyOwnerをつけること\n        end = true;\n    }\n\n    function viewResult() public returns(string[] memory){\n\n        //TODO:テスト省略のためにrequireを外しているので注意\n        // require(end == true, \"Voting is not END.\");\n        return ballots;\n    }\n\n\n\n}",
  "sourcePath": "/Users/andy/evoting-private-chain/contracts/Sample.sol",
  "compiler": {
    "name": "solc",
    "version": "0.4.24+commit.e67f0147.Emscripten.clang"
  },
  "schemaVersion": "2.0.1",
  "updatedAt": "2019-05-10T08:54:33.649Z"
}