{
  "contractName": "Sample",
  "abi": [
    {
      "constant": true,
      "inputs": [],
      "name": "value",
      "outputs": [
        {
          "name": "",
          "type": "uint256"
        }
      ],
      "payable": false,
      "stateMutability": "view",
      "type": "function"
    },
    {
      "constant": true,
      "inputs": [
        {
          "name": "",
          "type": "uint256"
        }
      ],
      "name": "ballots",
      "outputs": [
        {
          "name": "",
          "type": "string"
        }
      ],
      "payable": false,
      "stateMutability": "view",
      "type": "function"
    },
    {
      "constant": true,
      "inputs": [
        {
          "name": "",
          "type": "address"
        }
      ],
      "name": "voteCount",
      "outputs": [
        {
          "name": "",
          "type": "uint256"
        }
      ],
      "payable": false,
      "stateMutability": "view",
      "type": "function"
    },
    {
      "constant": true,
      "inputs": [],
      "name": "inspectorAddress",
      "outputs": [
        {
          "name": "",
          "type": "address"
        }
      ],
      "payable": false,
      "stateMutability": "view",
      "type": "function"
    },
    {
      "constant": true,
      "inputs": [
        {
          "name": "",
          "type": "uint256"
        }
      ],
      "name": "voterAddressArray",
      "outputs": [
        {
          "name": "",
          "type": "address"
        }
      ],
      "payable": false,
      "stateMutability": "view",
      "type": "function"
    },
    {
      "constant": true,
      "inputs": [],
      "name": "ownerAddress",
      "outputs": [
        {
          "name": "",
          "type": "address"
        }
      ],
      "payable": false,
      "stateMutability": "view",
      "type": "function"
    },
    {
      "constant": true,
      "inputs": [
        {
          "name": "",
          "type": "address"
        }
      ],
      "name": "votes",
      "outputs": [
        {
          "name": "",
          "type": "string"
        }
      ],
      "payable": false,
      "stateMutability": "view",
      "type": "function"
    },
    {
      "constant": true,
      "inputs": [],
      "name": "end",
      "outputs": [
        {
          "name": "",
          "type": "bool"
        }
      ],
      "payable": false,
      "stateMutability": "view",
      "type": "function"
    },
    {
      "constant": false,
      "inputs": [
        {
          "name": "_voterAddress",
          "type": "address"
        }
      ],
      "name": "setVoterAddress",
      "outputs": [],
      "payable": false,
      "stateMutability": "nonpayable",
      "type": "function"
    },
    {
      "constant": false,
      "inputs": [
        {
          "name": "_inspectorAddress",
          "type": "address"
        }
      ],
      "name": "setInspectorAddress",
      "outputs": [],
      "payable": false,
      "stateMutability": "nonpayable",
      "type": "function"
    },
    {
      "constant": false,
      "inputs": [
        {
          "name": "_a",
          "type": "string"
        },
        {
          "name": "_b",
          "type": "string"
        }
      ],
      "name": "strConnect",
      "outputs": [
        {
          "name": "",
          "type": "string"
        }
      ],
      "payable": false,
      "stateMutability": "nonpayable",
      "type": "function"
    },
    {
      "constant": false,
      "inputs": [
        {
          "name": "x",
          "type": "address"
        }
      ],
      "name": "toString",
      "outputs": [
        {
          "name": "",
          "type": "string"
        }
      ],
      "payable": false,
      "stateMutability": "nonpayable",
      "type": "function"
    },
    {
      "constant": false,
      "inputs": [
        {
          "name": "_vote",
          "type": "string"
        }
      ],
      "name": "setVote",
      "outputs": [],
      "payable": false,
      "stateMutability": "nonpayable",
      "type": "function"
    },
    {
      "constant": false,
      "inputs": [],
      "name": "endVoting",
      "outputs": [],
      "payable": false,
      "stateMutability": "nonpayable",
      "type": "function"
    },
    {
      "constant": false,
      "inputs": [],
      "name": "getEndSign",
      "outputs": [
        {
          "name": "",
          "type": "bool"
        }
      ],
      "payable": false,
      "stateMutability": "nonpayable",
      "type": "function"
    },
    {
      "constant": false,
      "inputs": [],
      "name": "viewResult",
      "outputs": [
        {
          "name": "",
          "type": "string[]"
        }
      ],
      "payable": false,
      "stateMutability": "nonpayable",
      "type": "function"
    },
    {
      "constant": false,
      "inputs": [
        {
          "name": "_value",
          "type": "uint256"
        }
      ],
      "name": "setValue",
      "outputs": [],
      "payable": false,
      "stateMutability": "nonpayable",
      "type": "function"
    },
    {
      "constant": false,
      "inputs": [],
      "name": "getValue",
      "outputs": [
        {
          "name": "",
          "type": "uint256"
        }
      ],
      "payable": false,
      "stateMutability": "nonpayable",
      "type": "function"
    }
  ],
  "bytecode": "0x608060405260408051908101604052806040805190810160405280600581526020017f746573743100000000000000000000000000000000000000000000000000000081525081526020016040805190810160405280600581526020017f7465737432000000000000000000000000000000000000000000000000000000815250815250600390600262000095929190620000f7565b506000600660006101000a81548160ff021916908315150217905550336000806101000a81548173ffffffffffffffffffffffffffffffffffffffff021916908373ffffffffffffffffffffffffffffffffffffffff1602179055506200028a565b8280548282559060005260206000209081019282156200014b579160200282015b828111156200014a578251829080519060200190620001399291906200015e565b509160200191906001019062000118565b5b5090506200015a9190620001e5565b5090565b828054600181600116156101000203166002900490600052602060002090601f016020900481019282601f10620001a157805160ff1916838001178555620001d2565b82800160010185558215620001d2579182015b82811115620001d1578251825591602001919060010190620001b4565b5b509050620001e1919062000216565b5090565b6200021391905b808211156200020f57600081816200020591906200023e565b50600101620001ec565b5090565b90565b6200023b91905b80821115620002375760008160009055506001016200021d565b5090565b90565b50805460018160011615610100020316600290046000825580601f1062000266575062000287565b601f01602090049060005260206000209081019062000286919062000216565b5b50565b611862806200029a6000396000f3fe6080604052600436106100fc576000357c0100000000000000000000000000000000000000000000000000000000900463ffffffff16806305ad9e2914610101578063209652551461012c57806330f8ca83146101575780633cff0380146101945780633fa4f245146101bf5780634ba5059c146101ea578063552410771461021357806356ca623e1461023c5780635c632b38146102795780635e3cd7bc146102b6578063696f8c57146102f357806371b7ddb81461031e5780638f84aa091461035b578063c3403ddf14610386578063d7b9377a1461039d578063d8bff5a5146103c6578063efbe1c1c14610403578063f1772a331461042e575b600080fd5b34801561010d57600080fd5b50610116610457565b60405161012391906115c3565b60405180910390f35b34801561013857600080fd5b5061014161046e565b60405161014e91906116c2565b60405180910390f35b34801561016357600080fd5b5061017e600480360361017991908101906112d7565b610478565b60405161018b9190611600565b60405180910390f35b3480156101a057600080fd5b506101a9610667565b6040516101b691906115a1565b60405180910390f35b3480156101cb57600080fd5b506101d46107f0565b6040516101e191906116c2565b60405180910390f35b3480156101f657600080fd5b50610211600480360361020c919081019061126d565b6107f6565b005b34801561021f57600080fd5b5061023a60048036036102359190810190611343565b610923565b005b34801561024857600080fd5b50610263600480360361025e919081019061126d565b61092d565b6040516102709190611600565b60405180910390f35b34801561028557600080fd5b506102a0600480360361029b9190810190611343565b610a18565b6040516102ad91906115de565b60405180910390f35b3480156102c257600080fd5b506102dd60048036036102d8919081019061126d565b610ad3565b6040516102ea91906116c2565b60405180910390f35b3480156102ff57600080fd5b50610308610aeb565b6040516103159190611586565b60405180910390f35b34801561032a57600080fd5b5061034560048036036103409190810190611343565b610b11565b6040516103529190611586565b60405180910390f35b34801561036757600080fd5b50610370610b4f565b60405161037d9190611586565b60405180910390f35b34801561039257600080fd5b5061039b610b74565b005b3480156103a957600080fd5b506103c460048036036103bf919081019061126d565b610c7a565b005b3480156103d257600080fd5b506103ed60048036036103e8919081019061126d565b610dcc565b6040516103fa91906115de565b60405180910390f35b34801561040f57600080fd5b50610418610e7c565b60405161042591906115c3565b60405180910390f35b34801561043a57600080fd5b5061045560048036036104509190810190611296565b610e8f565b005b6000600660009054906101000a900460ff16905090565b6000600754905090565b606080839050606083905060608290506060829050606081518351016040519080825280601f01601f1916602001820160405280156104c65781602001600182028038833980820191505090505b509050600080905060008090505b84518160ff16101561059257848160ff168151811015156104f157fe5b9060200101517f010000000000000000000000000000000000000000000000000000000000000090047f010000000000000000000000000000000000000000000000000000000000000002838360ff1681518110151561054d57fe5b9060200101907effffffffffffffffffffffffffffffffffffffffffffffffffffffffffffff1916908160001a905350818060010192505080806001019150506104d4565b5060008090505b83518160ff16101561065757838160ff168151811015156105b657fe5b9060200101517f010000000000000000000000000000000000000000000000000000000000000090047f010000000000000000000000000000000000000000000000000000000000000002838360ff1681518110151561061257fe5b9060200101907effffffffffffffffffffffffffffffffffffffffffffffffffffffffffffff1916908160001a90535081806001019250508080600101915050610599565b5081965050505050505092915050565b606060011515600660009054906101000a900460ff1615151415156106c1576040517f08c379a00000000000000000000000000000000000000000000000000000000081526004016106b8906116a2565b60405180910390fd5b6000600380549050905060608160405190808252806020026020018201604052801561070157816020015b60608152602001906001900390816106ec5790505b5090506003805480602002602001604051908101604052809291908181526020016000905b828210156107e2578382906000526020600020018054600181600116156101000203166002900480601f0160208091040260200160405190810160405280929190818152602001828054600181600116156101000203166002900480156107ce5780601f106107a3576101008083540402835291602001916107ce565b820191906000526020600020905b8154815290600101906020018083116107b157829003601f168201915b505050505081526020019060010190610726565b505050509050809250505090565b60075481565b6000809054906101000a900473ffffffffffffffffffffffffffffffffffffffff1673ffffffffffffffffffffffffffffffffffffffff163373ffffffffffffffffffffffffffffffffffffffff16141515610887576040517f08c379a000000000000000000000000000000000000000000000000000000000815260040161087e90611642565b60405180910390fd5b60001515600660009054906101000a900460ff1615151415156108df576040517f08c379a00000000000000000000000000000000000000000000000000000000081526004016108d690611622565b60405180910390fd5b80600160006101000a81548173ffffffffffffffffffffffffffffffffffffffff021916908373ffffffffffffffffffffffffffffffffffffffff16021790555050565b8060078190555050565b60608060146040519080825280601f01601f1916602001820160405280156109645781602001600182028038833980820191505090505b50905060008090505b6014811015610a0e578060130360080260020a8473ffffffffffffffffffffffffffffffffffffffff168115156109a057fe5b047f01000000000000000000000000000000000000000000000000000000000000000282828151811015156109d157fe5b9060200101907effffffffffffffffffffffffffffffffffffffffffffffffffffffffffffff1916908160001a905350808060010191505061096d565b5080915050919050565b600381815481101515610a2757fe5b906000526020600020016000915090508054600181600116156101000203166002900480601f016020809104026020016040519081016040528092919081815260200182805460018160011615610100020316600290048015610acb5780601f10610aa057610100808354040283529160200191610acb565b820191906000526020600020905b815481529060010190602001808311610aae57829003601f168201915b505050505081565b60056020528060005260406000206000915090505481565b600160009054906101000a900473ffffffffffffffffffffffffffffffffffffffff1681565b600281815481101515610b2057fe5b906000526020600020016000915054906101000a900473ffffffffffffffffffffffffffffffffffffffff1681565b6000809054906101000a900473ffffffffffffffffffffffffffffffffffffffff1681565b6000809054906101000a900473ffffffffffffffffffffffffffffffffffffffff1673ffffffffffffffffffffffffffffffffffffffff163373ffffffffffffffffffffffffffffffffffffffff16141515610c05576040517f08c379a0000000000000000000000000000000000000000000000000000000008152600401610bfc90611642565b60405180910390fd5b60001515600660009054906101000a900460ff161515141515610c5d576040517f08c379a0000000000000000000000000000000000000000000000000000000008152600401610c5490611622565b60405180910390fd5b6001600660006101000a81548160ff021916908315150217905550565b6000809054906101000a900473ffffffffffffffffffffffffffffffffffffffff1673ffffffffffffffffffffffffffffffffffffffff163373ffffffffffffffffffffffffffffffffffffffff16141515610d0b576040517f08c379a0000000000000000000000000000000000000000000000000000000008152600401610d0290611642565b60405180910390fd5b60001515600660009054906101000a900460ff161515141515610d63576040517f08c379a0000000000000000000000000000000000000000000000000000000008152600401610d5a90611622565b60405180910390fd5b60028190806001815401808255809150509060018203906000526020600020016000909192909190916101000a81548173ffffffffffffffffffffffffffffffffffffffff021916908373ffffffffffffffffffffffffffffffffffffffff1602179055505050565b60046020528060005260406000206000915090508054600181600116156101000203166002900480601f016020809104026020016040519081016040528092919081815260200182805460018160011615610100020316600290048015610e745780601f10610e4957610100808354040283529160200191610e74565b820191906000526020600020905b815481529060010190602001808311610e5757829003601f168201915b505050505081565b600660009054906101000a900460ff1681565b60001515600660009054906101000a900460ff161515141515610ee7576040517f08c379a0000000000000000000000000000000000000000000000000000000008152600401610ede90611622565b60405180910390fd5b60008090506000600560003373ffffffffffffffffffffffffffffffffffffffff1673ffffffffffffffffffffffffffffffffffffffff16815260200190815260200160002054141515610f70576040517f08c379a0000000000000000000000000000000000000000000000000000000008152600401610f6790611682565b60405180910390fd5b60008090505b60028054905081101561100257600281815481101515610f9257fe5b9060005260206000200160009054906101000a900473ffffffffffffffffffffffffffffffffffffffff1673ffffffffffffffffffffffffffffffffffffffff163373ffffffffffffffffffffffffffffffffffffffff161415610ff557600191505b8080600101915050610f76565b50600181141515611048576040517f08c379a000000000000000000000000000000000000000000000000000000000815260040161103f90611662565b60405180910390fd5b81600460003373ffffffffffffffffffffffffffffffffffffffff1673ffffffffffffffffffffffffffffffffffffffff168152602001908152602001600020908051906020019061109b92919061114a565b506001600560003373ffffffffffffffffffffffffffffffffffffffff1673ffffffffffffffffffffffffffffffffffffffff1681526020019081526020016000206000828254019250508190555060606110f53361092d565b905060606111038483610478565b9050600381908060018154018082558091505090600182039060005260206000200160009091929091909150908051906020019061114292919061114a565b505050505050565b828054600181600116156101000203166002900490600052602060002090601f016020900481019282601f1061118b57805160ff19168380011785556111b9565b828001600101855582156111b9579182015b828111156111b857825182559160200191906001019061119d565b5b5090506111c691906111ca565b5090565b6111ec91905b808211156111e85760008160009055506001016111d0565b5090565b90565b60006111fb82356117b9565b905092915050565b600082601f830112151561121657600080fd5b81356112296112248261170a565b6116dd565b9150808252602083016020830185838301111561124557600080fd5b6112508382846117d5565b50505092915050565b600061126582356117cb565b905092915050565b60006020828403121561127f57600080fd5b600061128d848285016111ef565b91505092915050565b6000602082840312156112a857600080fd5b600082013567ffffffffffffffff8111156112c257600080fd5b6112ce84828501611203565b91505092915050565b600080604083850312156112ea57600080fd5b600083013567ffffffffffffffff81111561130457600080fd5b61131085828601611203565b925050602083013567ffffffffffffffff81111561132d57600080fd5b61133985828601611203565b9150509250929050565b60006020828403121561135557600080fd5b600061136384828501611259565b91505092915050565b61137581611771565b82525050565b600061138682611743565b8084526020840193508360208202850161139f85611736565b60005b848110156113d85783830388526113ba83835161142e565b92506113c582611764565b91506020880197506001810190506113a2565b508196508694505050505092915050565b6113f281611783565b82525050565b600061140382611759565b8084526114178160208601602086016117e4565b61142081611817565b602085010191505092915050565b60006114398261174e565b80845261144d8160208601602086016117e4565b61145681611817565b602085010191505092915050565b6000600d82527f766f74696e6720697320656e64000000000000000000000000000000000000006020830152604082019050919050565b6000601482527f596f7520617265206e6f74206f776e65722021210000000000000000000000006020830152604082019050919050565b6000601982527f596f757220616464726573732069736e27742076616c69642e000000000000006020830152604082019050919050565b6000600e82527f446f75626c6520566f74696e672e0000000000000000000000000000000000006020830152604082019050919050565b6000601282527f566f74696e67206973206e6f7420454e442e00000000000000000000000000006020830152604082019050919050565b611580816117af565b82525050565b600060208201905061159b600083018461136c565b92915050565b600060208201905081810360008301526115bb818461137b565b905092915050565b60006020820190506115d860008301846113e9565b92915050565b600060208201905081810360008301526115f8818461142e565b905092915050565b6000602082019050818103600083015261161a81846113f8565b905092915050565b6000602082019050818103600083015261163b81611464565b9050919050565b6000602082019050818103600083015261165b8161149b565b9050919050565b6000602082019050818103600083015261167b816114d2565b9050919050565b6000602082019050818103600083015261169b81611509565b9050919050565b600060208201905081810360008301526116bb81611540565b9050919050565b60006020820190506116d76000830184611577565b92915050565b6000604051905081810181811067ffffffffffffffff8211171561170057600080fd5b8060405250919050565b600067ffffffffffffffff82111561172157600080fd5b601f19601f8301169050602081019050919050565b6000602082019050919050565b600081519050919050565b600081519050919050565b600081519050919050565b6000602082019050919050565b600061177c8261178f565b9050919050565b60008115159050919050565b600073ffffffffffffffffffffffffffffffffffffffff82169050919050565b6000819050919050565b60006117c48261178f565b9050919050565b6000819050919050565b82818337600083830152505050565b60005b838110156118025780820151818401526020810190506117e7565b83811115611811576000848401525b50505050565b6000601f19601f830116905091905056fea265627a7a723058200fac3a297d6e9f900fbc1fed01945a2d953c1db0a66b1ab353c87e139d4c33276c6578706572696d656e74616cf50037",
  "source": "pragma solidity >0.4.99 <0.6.0;\npragma experimental ABIEncoderV2;\n\nimport \"./Owned.sol\";\n\ncontract Sample is Owned {\n    address public inspectorAddress;\n    address[] public voterAddressArray;\n    string[] public ballots = [\"test1\",\"test2\"];\n    mapping(address => string) public votes;\n    mapping(address => uint) public voteCount;\n    bool public end = false;\n\n    uint public value;\n\n    //TODO:これを全ての関数にあとでつける\n    modifier isVotingEnd(){\n        require(end == false, \"voting is end\");\n        _;\n    }\n\n    // struct BallotResult {\n    //     address voterAddress;\n    //     string v;\n    // }\n\n    // BallotResult[] public BallotResults;\n\n    function concat(bytes memory a, bytes memory b) internal pure returns (bytes memory) {\n        return abi.encodePacked(a, b);\n    }\n\n    // set voter address\n    function setVoterAddress(address _voterAddress) onlyOwner isVotingEnd public {\n        //TODO:onlyOwner\n        voterAddressArray.push(_voterAddress);\n    }\n\n    // set inspector address\n    function setInspectorAddress(address _inspectorAddress) onlyOwner isVotingEnd public {\n        //TODO:onlyOwner\n        inspectorAddress = _inspectorAddress;\n    }\n\n    // 文字列連結\n    function strConnect(string memory _a, string memory _b) public  returns( string memory){\n\n        string memory str1 = _a;\n        string memory str2 = _b;\n        bytes memory strbyte1 = bytes(str1);\n        bytes memory strbyte2 = bytes(str2);\n\n        bytes memory str = new bytes(strbyte1.length + strbyte2.length);\n\n        uint8 point = 0;\n\n        for(uint8 j = 0; j < strbyte1.length;j++){\n            str[point] = strbyte1[j];\n            point++;\n        }\n        for(uint8 k = 0; k < strbyte2.length;k++){\n            str[point] = strbyte2[k];\n            point++;\n        }\n        return string(str);\n    }\n\n    // byteを文字列に変換\n    function toString(address x) public returns (string memory) {\n        bytes memory b = new bytes(20);\n        for (uint i = 0; i < 20; i++)\n            b[i] = byte(uint8(uint(x) / (2**(8*(19 - i)))));\n        return string(b);\n    }\n\n    // create and send vote\n    function setVote(string memory _vote) public isVotingEnd {\n        // 二重投票防止とアドレス選定\n        uint flag = 0;\n        require(voteCount[msg.sender] == 0, \"Double Voting.\");\n        for(uint i = 0; i < voterAddressArray.length; i++){\n            if(msg.sender == voterAddressArray[i]){\n                flag = 1;\n            }\n        }\n        require(flag == 1, \"Your address isn't valid.\");\n        votes[msg.sender] = _vote;\n        voteCount[msg.sender] += 1;\n        string memory addr = toString(msg.sender);\n        string memory res = strConnect(_vote, addr);\n        ballots.push(res);\n        // ballots.push(_vote);\n        // BallotResults.push(BallotResult(msg.sender, _vote));\n    }\n\n    function endVoting()  onlyOwner isVotingEnd public {\n        //TODO: onlyOwnerをつけること\n        end = true;\n    }\n\n    function getEndSign() public returns(bool){\n        return end;\n    }\n\n    function viewResult() public  returns(string[] memory){\n        //TODO:テスト省略のためにrequireを外しているので注意\n        require(end == true, \"Voting is not END.\");\n        //TODO:投票した人しか実行できないようにした\n        //TODO:ここでエラーとなる\n        // require(voteCount[msg.sender] == 1, \"You should vote.\");\n        uint array_length = ballots.length;\n        string[] memory arrayMemory = new string[](array_length);\n        arrayMemory = ballots;\n\n        return arrayMemory;\n    }\n\n    function setValue(uint _value) public{\n        value = _value;\n    }\n\n    function getValue() public returns(uint){\n        return value;\n    }\n\n    // function getBallotResults(uint _index) public returns(address, uint){\n    //     return (BallotResults)\n    // }\n}\n",
  "sourcePath": "/Users/andy/evoting-private-chain/contracts/Sample.sol",
  "compiler": {
    "name": "solc",
    "version": "0.5.0+commit.1d4f565a.Emscripten.clang"
  },
  "schemaVersion": "3.0.9",
  "updatedAt": "2019-08-06T13:43:48.916Z",
  "devdoc": {
    "methods": {}
  },
  "userdoc": {
    "methods": {}
  }
}