{
  "contractName": "Sample",
  "abi": [
    {
      "constant": true,
      "inputs": [
        {
          "internalType": "uint256",
          "name": "",
          "type": "uint256"
        }
      ],
      "name": "ballots",
      "outputs": [
        {
          "internalType": "string",
          "name": "",
          "type": "string"
        }
      ],
      "payable": false,
      "stateMutability": "view",
      "type": "function"
    },
    {
      "constant": true,
      "inputs": [],
      "name": "end",
      "outputs": [
        {
          "internalType": "bool",
          "name": "",
          "type": "bool"
        }
      ],
      "payable": false,
      "stateMutability": "view",
      "type": "function"
    },
    {
      "constant": true,
      "inputs": [],
      "name": "inspectorAddress",
      "outputs": [
        {
          "internalType": "address",
          "name": "",
          "type": "address"
        }
      ],
      "payable": false,
      "stateMutability": "view",
      "type": "function"
    },
    {
      "constant": true,
      "inputs": [],
      "name": "ownerAddress",
      "outputs": [
        {
          "internalType": "address",
          "name": "",
          "type": "address"
        }
      ],
      "payable": false,
      "stateMutability": "view",
      "type": "function"
    },
    {
      "constant": true,
      "inputs": [
        {
          "internalType": "uint256",
          "name": "",
          "type": "uint256"
        }
      ],
      "name": "testArray",
      "outputs": [
        {
          "internalType": "string",
          "name": "",
          "type": "string"
        }
      ],
      "payable": false,
      "stateMutability": "view",
      "type": "function"
    },
    {
      "constant": true,
      "inputs": [],
      "name": "testWord",
      "outputs": [
        {
          "internalType": "string",
          "name": "",
          "type": "string"
        }
      ],
      "payable": false,
      "stateMutability": "view",
      "type": "function"
    },
    {
      "constant": true,
      "inputs": [],
      "name": "value",
      "outputs": [
        {
          "internalType": "uint256",
          "name": "",
          "type": "uint256"
        }
      ],
      "payable": false,
      "stateMutability": "view",
      "type": "function"
    },
    {
      "constant": true,
      "inputs": [
        {
          "internalType": "address",
          "name": "",
          "type": "address"
        }
      ],
      "name": "voteCount",
      "outputs": [
        {
          "internalType": "uint256",
          "name": "",
          "type": "uint256"
        }
      ],
      "payable": false,
      "stateMutability": "view",
      "type": "function"
    },
    {
      "constant": true,
      "inputs": [
        {
          "internalType": "uint256",
          "name": "",
          "type": "uint256"
        }
      ],
      "name": "voterAddressArray",
      "outputs": [
        {
          "internalType": "address",
          "name": "",
          "type": "address"
        }
      ],
      "payable": false,
      "stateMutability": "view",
      "type": "function"
    },
    {
      "constant": true,
      "inputs": [
        {
          "internalType": "address",
          "name": "",
          "type": "address"
        }
      ],
      "name": "votes",
      "outputs": [
        {
          "internalType": "string",
          "name": "",
          "type": "string"
        }
      ],
      "payable": false,
      "stateMutability": "view",
      "type": "function"
    },
    {
      "constant": false,
      "inputs": [
        {
          "internalType": "address",
          "name": "_voterAddress",
          "type": "address"
        }
      ],
      "name": "setVoterAddress",
      "outputs": [],
      "payable": false,
      "stateMutability": "nonpayable",
      "type": "function"
    },
    {
      "constant": false,
      "inputs": [
        {
          "internalType": "address",
          "name": "_inspectorAddress",
          "type": "address"
        }
      ],
      "name": "setInspectorAddress",
      "outputs": [],
      "payable": false,
      "stateMutability": "nonpayable",
      "type": "function"
    },
    {
      "constant": false,
      "inputs": [
        {
          "internalType": "string",
          "name": "_vote",
          "type": "string"
        },
        {
          "internalType": "string",
          "name": "_rP",
          "type": "string"
        }
      ],
      "name": "setVote",
      "outputs": [],
      "payable": false,
      "stateMutability": "nonpayable",
      "type": "function"
    },
    {
      "constant": false,
      "inputs": [],
      "name": "endVoting",
      "outputs": [],
      "payable": false,
      "stateMutability": "nonpayable",
      "type": "function"
    },
    {
      "constant": false,
      "inputs": [],
      "name": "getEndSign",
      "outputs": [
        {
          "internalType": "bool",
          "name": "",
          "type": "bool"
        }
      ],
      "payable": false,
      "stateMutability": "nonpayable",
      "type": "function"
    },
    {
      "constant": false,
      "inputs": [],
      "name": "viewResult",
      "outputs": [
        {
          "internalType": "string[]",
          "name": "",
          "type": "string[]"
        }
      ],
      "payable": false,
      "stateMutability": "nonpayable",
      "type": "function"
    },
    {
      "constant": false,
      "inputs": [
        {
          "internalType": "uint256",
          "name": "_value",
          "type": "uint256"
        }
      ],
      "name": "setValue",
      "outputs": [],
      "payable": false,
      "stateMutability": "nonpayable",
      "type": "function"
    },
    {
      "constant": false,
      "inputs": [],
      "name": "getValue",
      "outputs": [
        {
          "internalType": "uint256",
          "name": "",
          "type": "uint256"
        }
      ],
      "payable": false,
      "stateMutability": "nonpayable",
      "type": "function"
    },
    {
      "constant": false,
      "inputs": [
        {
          "internalType": "string",
          "name": "_word",
          "type": "string"
        }
      ],
      "name": "testSetWord",
      "outputs": [],
      "payable": false,
      "stateMutability": "nonpayable",
      "type": "function"
    },
    {
      "constant": true,
      "inputs": [],
      "name": "testGetArray",
      "outputs": [
        {
          "internalType": "string[]",
          "name": "",
          "type": "string[]"
        }
      ],
      "payable": false,
      "stateMutability": "view",
      "type": "function"
    },
    {
      "constant": false,
      "inputs": [
        {
          "internalType": "address",
          "name": "x",
          "type": "address"
        }
      ],
      "name": "toAsciiString",
      "outputs": [
        {
          "internalType": "string",
          "name": "",
          "type": "string"
        }
      ],
      "payable": false,
      "stateMutability": "nonpayable",
      "type": "function"
    },
    {
      "constant": false,
      "inputs": [
        {
          "internalType": "bytes1",
          "name": "b",
          "type": "bytes1"
        }
      ],
      "name": "char",
      "outputs": [
        {
          "internalType": "bytes1",
          "name": "c",
          "type": "bytes1"
        }
      ],
      "payable": false,
      "stateMutability": "nonpayable",
      "type": "function"
    },
    {
      "constant": false,
      "inputs": [
        {
          "internalType": "string",
          "name": "_a",
          "type": "string"
        },
        {
          "internalType": "string",
          "name": "_b",
          "type": "string"
        }
      ],
      "name": "strConnect",
      "outputs": [
        {
          "internalType": "string",
          "name": "",
          "type": "string"
        }
      ],
      "payable": false,
      "stateMutability": "nonpayable",
      "type": "function"
    }
  ],
  "bytecode": "0x60806040526000600660006101000a81548160ff02191690831515021790555060405180602001604052806040518060400160405280600481526020017f7465737400000000000000000000000000000000000000000000000000000000815250815250600990600162000075929190620000bc565b50336000806101000a81548173ffffffffffffffffffffffffffffffffffffffff021916908373ffffffffffffffffffffffffffffffffffffffff1602179055506200024f565b82805482825590600052602060002090810192821562000110579160200282015b828111156200010f578251829080519060200190620000fe92919062000123565b5091602001919060010190620000dd565b5b5090506200011f9190620001aa565b5090565b828054600181600116156101000203166002900490600052602060002090601f016020900481019282601f106200016657805160ff191683800117855562000197565b8280016001018555821562000197579182015b828111156200019657825182559160200191906001019062000179565b5b509050620001a69190620001db565b5090565b620001d891905b80821115620001d45760008181620001ca919062000203565b50600101620001b1565b5090565b90565b6200020091905b80821115620001fc576000816000905550600101620001e2565b5090565b90565b50805460018160011615610100020316600290046000825580601f106200022b57506200024c565b601f0160209004906000526020600020908101906200024b9190620001db565b5b50565b611bd9806200025f6000396000f3fe608060405234801561001057600080fd5b506004361061014d5760003560e01c80635c632b38116100c3578063a59fde3e1161007c578063a59fde3e146103ca578063c3403ddf146103e6578063cc0d781c146103f0578063d7b9377a1461040c578063d8bff5a514610428578063efbe1c1c146104585761014d565b80635c632b38146102ce5780635e3cd7bc146102fe578063696f8c571461032e57806369f9ad2f1461034c57806371b7ddb81461037c5780638f84aa09146103ac5761014d565b80633fa4f245116101155780633fa4f2451461020c578063408b81ca1461022a578063463f5c30146102485780634ba5059c1461027857806353728cac1461029457806355241077146102b25761014d565b806305ad9e291461015257806320965255146101705780632c6e75981461018e57806330f8ca83146101be5780633cff0380146101ee575b600080fd5b61015a610476565b60405161016791906118cb565b60405180910390f35b61017861048d565b60405161018591906119a5565b60405180910390f35b6101a860048036036101a39190810190611536565b610497565b6040516101b59190611923565b60405180910390f35b6101d860048036036101d391908101906115c9565b6105e6565b6040516101e59190611923565b60405180910390f35b6101f661074b565b60405161020391906118a9565b60405180910390f35b61021461087c565b60405161022191906119a5565b60405180910390f35b610232610882565b60405161023f9190611901565b60405180910390f35b610262600480360361025d9190810190611635565b610920565b60405161026f9190611901565b60405180910390f35b610292600480360361028d9190810190611536565b6109d9565b005b61029c610b02565b6040516102a991906118a9565b60405180910390f35b6102cc60048036036102c79190810190611635565b610beb565b005b6102e860048036036102e39190810190611635565b610bf5565b6040516102f59190611901565b60405180910390f35b61031860048036036103139190810190611536565b610cae565b60405161032591906119a5565b60405180910390f35b610336610cc6565b604051610343919061188e565b60405180910390f35b6103666004803603610361919081019061155f565b610cec565b60405161037391906118e6565b60405180910390f35b61039660048036036103919190810190611635565b610d20565b6040516103a3919061188e565b60405180910390f35b6103b4610d5c565b6040516103c1919061188e565b60405180910390f35b6103e460048036036103df91908101906115c9565b610d81565b005b6103ee611048565b005b61040a60048036036104059190810190611588565b61114a565b005b61042660048036036104219190810190611536565b6111ed565b005b610442600480360361043d9190810190611536565b61133b565b60405161044f9190611901565b60405180910390f35b6104606113eb565b60405161046d91906118cb565b60405180910390f35b6000600660009054906101000a900460ff16905090565b6000600754905090565b60608060286040519080825280601f01601f1916602001820160405280156104ce5781602001600182028038833980820191505090505b50905060008090505b60148110156105dc5760008160130360080260020a8573ffffffffffffffffffffffffffffffffffffffff168161050a57fe5b0460f81b9050600060108260f81c60ff168161052257fe5b0460f81b905060008160f81c6010028360f81c0360f81b905061054482610cec565b85856002028151811061055357fe5b60200101907effffffffffffffffffffffffffffffffffffffffffffffffffffffffffffff1916908160001a90535061058b81610cec565b85600186600202018151811061059d57fe5b60200101907effffffffffffffffffffffffffffffffffffffffffffffffffffffffffffff1916908160001a90535050505080806001019150506104d7565b5080915050919050565b606080839050606083905060608290506060829050606081518351016040519080825280601f01601f1916602001820160405280156106345781602001600182028038833980820191505090505b509050600080905060008090505b84518160ff1610156106bb57848160ff168151811061065d57fe5b602001015160f81c60f81b838360ff168151811061067757fe5b60200101907effffffffffffffffffffffffffffffffffffffffffffffffffffffffffffff1916908160001a90535081806001019250508080600101915050610642565b5060008090505b83518160ff16101561073b57838160ff16815181106106dd57fe5b602001015160f81c60f81b838360ff16815181106106f757fe5b60200101907effffffffffffffffffffffffffffffffffffffffffffffffffffffffffffff1916908160001a905350818060010192505080806001019150506106c2565b5081965050505050505092915050565b60606000600380549050905060608160405190808252806020026020018201604052801561078d57816020015b60608152602001906001900390816107785790505b5090506003805480602002602001604051908101604052809291908181526020016000905b8282101561086e578382906000526020600020018054600181600116156101000203166002900480601f01602080910402602001604051908101604052809291908181526020018280546001816001161561010002031660029004801561085a5780601f1061082f5761010080835404028352916020019161085a565b820191906000526020600020905b81548152906001019060200180831161083d57829003601f168201915b5050505050815260200190600101906107b2565b505050509050809250505090565b60075481565b60088054600181600116156101000203166002900480601f0160208091040260200160405190810160405280929190818152602001828054600181600116156101000203166002900480156109185780601f106108ed57610100808354040283529160200191610918565b820191906000526020600020905b8154815290600101906020018083116108fb57829003601f168201915b505050505081565b6009818154811061092d57fe5b906000526020600020016000915090508054600181600116156101000203166002900480601f0160208091040260200160405190810160405280929190818152602001828054600181600116156101000203166002900480156109d15780601f106109a6576101008083540402835291602001916109d1565b820191906000526020600020905b8154815290600101906020018083116109b457829003601f168201915b505050505081565b6000809054906101000a900473ffffffffffffffffffffffffffffffffffffffff1673ffffffffffffffffffffffffffffffffffffffff163373ffffffffffffffffffffffffffffffffffffffff1614610a68576040517f08c379a0000000000000000000000000000000000000000000000000000000008152600401610a5f90611965565b60405180910390fd5b60001515600660009054906101000a900460ff16151514610abe576040517f08c379a0000000000000000000000000000000000000000000000000000000008152600401610ab590611945565b60405180910390fd5b80600160006101000a81548173ffffffffffffffffffffffffffffffffffffffff021916908373ffffffffffffffffffffffffffffffffffffffff16021790555050565b60606009805480602002602001604051908101604052809291908181526020016000905b82821015610be2578382906000526020600020018054600181600116156101000203166002900480601f016020809104026020016040519081016040528092919081815260200182805460018160011615610100020316600290048015610bce5780601f10610ba357610100808354040283529160200191610bce565b820191906000526020600020905b815481529060010190602001808311610bb157829003601f168201915b505050505081526020019060010190610b26565b50505050905090565b8060078190555050565b60038181548110610c0257fe5b906000526020600020016000915090508054600181600116156101000203166002900480601f016020809104026020016040519081016040528092919081815260200182805460018160011615610100020316600290048015610ca65780601f10610c7b57610100808354040283529160200191610ca6565b820191906000526020600020905b815481529060010190602001808311610c8957829003601f168201915b505050505081565b60056020528060005260406000206000915090505481565b600160009054906101000a900473ffffffffffffffffffffffffffffffffffffffff1681565b6000600a8260f81c60ff161015610d0e5760308260f81c0160f81b9050610d1b565b60578260f81c0160f81b90505b919050565b60028181548110610d2d57fe5b906000526020600020016000915054906101000a900473ffffffffffffffffffffffffffffffffffffffff1681565b6000809054906101000a900473ffffffffffffffffffffffffffffffffffffffff1681565b60001515600660009054906101000a900460ff16151514610dd7576040517f08c379a0000000000000000000000000000000000000000000000000000000008152600401610dce90611945565b60405180910390fd5b60008090506000600560003373ffffffffffffffffffffffffffffffffffffffff1673ffffffffffffffffffffffffffffffffffffffff1681526020019081526020016000205414610e5e576040517f08c379a0000000000000000000000000000000000000000000000000000000008152600401610e5590611985565b60405180910390fd5b82600460003373ffffffffffffffffffffffffffffffffffffffff1673ffffffffffffffffffffffffffffffffffffffff1681526020019081526020016000209080519060200190610eb19291906113fe565b506001600560003373ffffffffffffffffffffffffffffffffffffffff1673ffffffffffffffffffffffffffffffffffffffff1681526020019081526020016000206000828254019250508190555060606040518060400160405280600781526020017f202c2072503a2000000000000000000000000000000000000000000000000000815250905060606040518060400160405280600981526020017f202c20766f74653a20000000000000000000000000000000000000000000000081525090506060610f8082876105e6565b90506060610f8e84876105e6565b90506060610f9c83836105e6565b905060606040518060400160405280600c81526020017f41646472657373203a203078000000000000000000000000000000000000000081525090506060610fec82610fe733610497565b6105e6565b90506060610ffa82856105e6565b905060038190806001815401808255809150509060018203906000526020600020016000909192909190915090805190602001906110399291906113fe565b50505050505050505050505050565b6000809054906101000a900473ffffffffffffffffffffffffffffffffffffffff1673ffffffffffffffffffffffffffffffffffffffff163373ffffffffffffffffffffffffffffffffffffffff16146110d7576040517f08c379a00000000000000000000000000000000000000000000000000000000081526004016110ce90611965565b60405180910390fd5b60001515600660009054906101000a900460ff1615151461112d576040517f08c379a000000000000000000000000000000000000000000000000000000000815260040161112490611945565b60405180910390fd5b6001600660006101000a81548160ff021916908315150217905550565b60606040518060400160405280600181526020017f3a000000000000000000000000000000000000000000000000000000000000008152509050606061119083836105e6565b905060606111a6826111a133610497565b6105e6565b905060098190806001815401808255809150509060018203906000526020600020016000909192909190915090805190602001906111e59291906113fe565b505050505050565b6000809054906101000a900473ffffffffffffffffffffffffffffffffffffffff1673ffffffffffffffffffffffffffffffffffffffff163373ffffffffffffffffffffffffffffffffffffffff161461127c576040517f08c379a000000000000000000000000000000000000000000000000000000000815260040161127390611965565b60405180910390fd5b60001515600660009054906101000a900460ff161515146112d2576040517f08c379a00000000000000000000000000000000000000000000000000000000081526004016112c990611945565b60405180910390fd5b60028190806001815401808255809150509060018203906000526020600020016000909192909190916101000a81548173ffffffffffffffffffffffffffffffffffffffff021916908373ffffffffffffffffffffffffffffffffffffffff1602179055505050565b60046020528060005260406000206000915090508054600181600116156101000203166002900480601f0160208091040260200160405190810160405280929190818152602001828054600181600116156101000203166002900480156113e35780601f106113b8576101008083540402835291602001916113e3565b820191906000526020600020905b8154815290600101906020018083116113c657829003601f168201915b505050505081565b600660009054906101000a900460ff1681565b828054600181600116156101000203166002900490600052602060002090601f016020900481019282601f1061143f57805160ff191683800117855561146d565b8280016001018555821561146d579182015b8281111561146c578251825591602001919060010190611451565b5b50905061147a919061147e565b5090565b6114a091905b8082111561149c576000816000905550600101611484565b5090565b90565b6000813590506114b281611b51565b92915050565b6000813590506114c781611b68565b92915050565b600082601f8301126114de57600080fd5b81356114f16114ec826119ed565b6119c0565b9150808252602083016020830185838301111561150d57600080fd5b611518838284611afe565b50505092915050565b60008135905061153081611b7f565b92915050565b60006020828403121561154857600080fd5b6000611556848285016114a3565b91505092915050565b60006020828403121561157157600080fd5b600061157f848285016114b8565b91505092915050565b60006020828403121561159a57600080fd5b600082013567ffffffffffffffff8111156115b457600080fd5b6115c0848285016114cd565b91505092915050565b600080604083850312156115dc57600080fd5b600083013567ffffffffffffffff8111156115f657600080fd5b611602858286016114cd565b925050602083013567ffffffffffffffff81111561161f57600080fd5b61162b858286016114cd565b9150509250929050565b60006020828403121561164757600080fd5b600061165584828501611521565b91505092915050565b600061166a838361174d565b905092915050565b61167b81611a8a565b82525050565b600061168c82611a29565b6116968185611a57565b9350836020820285016116a885611a19565b8060005b858110156116e457848403895281516116c5858261165e565b94506116d083611a4a565b925060208a019950506001810190506116ac565b50829750879550505050505092915050565b6116ff81611a9c565b82525050565b61170e81611aa8565b82525050565b600061171f82611a3f565b6117298185611a79565b9350611739818560208601611b0d565b61174281611b40565b840191505092915050565b600061175882611a34565b6117628185611a68565b9350611772818560208601611b0d565b61177b81611b40565b840191505092915050565b600061179182611a34565b61179b8185611a79565b93506117ab818560208601611b0d565b6117b481611b40565b840191505092915050565b60006117cc600d83611a79565b91507f766f74696e6720697320656e64000000000000000000000000000000000000006000830152602082019050919050565b600061180c601483611a79565b91507f596f7520617265206e6f74206f776e65722021210000000000000000000000006000830152602082019050919050565b600061184c600e83611a79565b91507f446f75626c6520566f74696e672e0000000000000000000000000000000000006000830152602082019050919050565b61188881611af4565b82525050565b60006020820190506118a36000830184611672565b92915050565b600060208201905081810360008301526118c38184611681565b905092915050565b60006020820190506118e060008301846116f6565b92915050565b60006020820190506118fb6000830184611705565b92915050565b6000602082019050818103600083015261191b8184611786565b905092915050565b6000602082019050818103600083015261193d8184611714565b905092915050565b6000602082019050818103600083015261195e816117bf565b9050919050565b6000602082019050818103600083015261197e816117ff565b9050919050565b6000602082019050818103600083015261199e8161183f565b9050919050565b60006020820190506119ba600083018461187f565b92915050565b6000604051905081810181811067ffffffffffffffff821117156119e357600080fd5b8060405250919050565b600067ffffffffffffffff821115611a0457600080fd5b601f19601f8301169050602081019050919050565b6000819050602082019050919050565b600081519050919050565b600081519050919050565b600081519050919050565b6000602082019050919050565b600082825260208201905092915050565b600082825260208201905092915050565b600082825260208201905092915050565b6000611a9582611ad4565b9050919050565b60008115159050919050565b60007fff0000000000000000000000000000000000000000000000000000000000000082169050919050565b600073ffffffffffffffffffffffffffffffffffffffff82169050919050565b6000819050919050565b82818337600083830152505050565b60005b83811015611b2b578082015181840152602081019050611b10565b83811115611b3a576000848401525b50505050565b6000601f19601f8301169050919050565b611b5a81611a8a565b8114611b6557600080fd5b50565b611b7181611aa8565b8114611b7c57600080fd5b50565b611b8881611af4565b8114611b9357600080fd5b5056fea365627a7a72315820b439884cf37ac321fe1870b68723e8925b1b2a25b87f757d53e9cbbbca844e176c6578706572696d656e74616cf564736f6c634300050c0040",
  "source": "// pragma solidity ^0.4.4;\npragma solidity >0.4.99 <0.6.0;\npragma experimental ABIEncoderV2;\n\nimport \"./Owned.sol\";\n\ncontract Sample is Owned {\n    address public inspectorAddress;\n    address[] public voterAddressArray;\n    string[] public ballots;\n    mapping(address => string) public votes;\n    mapping(address => uint) public voteCount;\n    bool public end = false;\n\n    // TEST\n    uint public value;\n    string public testWord;\n    string[] public testArray=[\"test\"];\n\n    //TODO:\n    modifier isVotingEnd(){\n        require(end == false, \"voting is end\");\n        _;\n    }\n\n    // set voter address\n    function setVoterAddress(address _voterAddress) onlyOwner isVotingEnd public {\n        voterAddressArray.push(_voterAddress);\n    }\n\n    // set inspector address\n    function setInspectorAddress(address _inspectorAddress) onlyOwner isVotingEnd public {\n        //TODO:onlyOwner\n        inspectorAddress = _inspectorAddress;\n    }\n\n    // create and send vote\n    function setVote(string memory _vote, string memory _rP) public isVotingEnd {\n        // \n        uint flag = 0;\n        // TODO:\n        require(voteCount[msg.sender] == 0, \"Double Voting.\");\n        // for(uint i = 0; i < voterAddressArray.length; i++){\n        //     if(msg.sender == voterAddressArray[i]){\n        //         flag = 1;\n        //     }\n        // }\n        // require(flag == 1, \"Your address isn't valid.\");\n        votes[msg.sender] = _vote;\n        voteCount[msg.sender] += 1;\n        string memory fixrP = \" , rP: \";\n        string memory fixvote = \" , vote: \";\n        string memory v = strConnect(fixvote, _vote);  // vote : _vote\n        string memory r = strConnect(fixrP, _rP);  // rP : _rP\n        string memory voteAndrP = strConnect(v,r); // , vote : obama, rP : eWersweaf...\n        string memory fix = \"Address : 0x\";\n        string memory fixedAddress = strConnect(fix,toAsciiString(msg.sender)); // 0x + address\n\n        string memory res = strConnect(fixedAddress,voteAndrP);\n        ballots.push(res);\n    }\n\n    function endVoting()  onlyOwner isVotingEnd public {\n        //TODO: onlyOwner\n        end = true;\n    }\n\n    function getEndSign() public returns(bool){\n        return end;\n    }\n\n    function viewResult() public  returns(string[] memory){\n        //TODO:require\n        // require(end == true, \"Voting is not END.\");\n        //TODO:\n        //TODO:\n        // require(voteCount[msg.sender] == 1, \"You should vote.\");\n        uint array_length = ballots.length;\n        string[] memory arrayMemory = new string[](array_length);\n        arrayMemory = ballots;\n\n        return arrayMemory;\n    }\n\n    function setValue(uint _value) public{\n        value = _value;\n    }\n\n    function getValue() public returns(uint){\n        return value;\n    }\n\n    // function getBallotResults(uint _index) public returns(address, uint){\n    //     return (BallotResults)\n    // }\n    function testSetWord(string memory _word) public {\n        //TODO:\n        string memory space = \":\";\n        string memory word = strConnect(_word, space);\n        string memory res = strConnect(word, toAsciiString(msg.sender));\n        testArray.push(res);\n    }\n\n    function testGetArray() public view returns(string[] memory)  {\n        return testArray;\n    }\n\n    function toAsciiString(address  x) public returns (string memory) {\n        bytes memory s = new bytes(40);\n        for (uint i = 0; i < 20; i++) {\n            byte b = byte(uint8(uint(x) / (2**(8*(19 - i)))));\n            byte hi = byte(uint8(b) / 16);\n            byte lo = byte(uint8(b) - 16 * uint8(hi));\n            s[2*i] = char(hi);\n            s[2*i+1] = char(lo);\n        }\n        return string(s);\n    }\n\n    function char(byte b) public returns (byte c) {\n        if (uint8(b) < 10) return byte(uint8(b) + 0x30);\n        else return byte(uint8(b) + 0x57);\n    }\n\n    function strConnect(string memory _a, string memory _b) public  returns(string memory){\n\n        string memory str1 = _a;\n        string memory str2 = _b;\n        bytes memory strbyte1 = bytes(str1);\n        bytes memory strbyte2 = bytes(str2);\n\n        bytes memory str = new bytes(strbyte1.length + strbyte2.length);\n\n        uint8 point = 0;\n\n        for(uint8 j = 0; j < strbyte1.length;j++){\n            str[point] = strbyte1[j];\n            point++;\n        }\n        for(uint8 k = 0; k < strbyte2.length;k++){\n            str[point] = strbyte2[k];\n            point++;\n        }\n        return string(str);\n    }\n\n}\n",
  "sourcePath": "/Users/ryota/codes/time-release-evoting/contracts/Sample.sol",
  "compiler": {
    "name": "solc",
    "version": "0.5.12+commit.7709ece9.Emscripten.clang"
  },
  "schemaVersion": "3.0.19",
  "updatedAt": "2020-01-19T12:22:48.216Z",
  "networkType": "ethereum",
  "devdoc": {
    "methods": {}
  },
  "userdoc": {
    "methods": {}
  }
}