{
  "contractName": "Sample",
  "abi": [
    {
      "constant": true,
      "inputs": [],
      "name": "value",
      "outputs": [
        {
          "name": "",
          "type": "uint256"
        }
      ],
      "payable": false,
      "stateMutability": "view",
      "type": "function"
    },
    {
      "constant": false,
      "inputs": [
        {
          "name": "_value",
          "type": "uint256"
        }
      ],
      "name": "setValue",
      "outputs": [],
      "payable": false,
      "stateMutability": "nonpayable",
      "type": "function"
    },
    {
      "constant": false,
      "inputs": [],
      "name": "getValue",
      "outputs": [
        {
          "name": "",
          "type": "uint256"
        }
      ],
      "payable": false,
      "stateMutability": "nonpayable",
      "type": "function"
    }
  ],
  "bytecode": "0x608060405234801561001057600080fd5b50610117806100206000396000f3006080604052600436106053576000357c0100000000000000000000000000000000000000000000000000000000900463ffffffff168063209652551460585780633fa4f245146080578063552410771460a8575b600080fd5b348015606357600080fd5b50606a60d2565b6040518082815260200191505060405180910390f35b348015608b57600080fd5b50609260db565b6040518082815260200191505060405180910390f35b34801560b357600080fd5b5060d06004803603810190808035906020019092919050505060e1565b005b60008054905090565b60005481565b80600081905550505600a165627a7a723058205bc0e65853031178bed0a244dfa9f970b73b850cf28407fcfe9882fe545443310029",
  "source": "pragma solidity >0.4.0 <0.6.0;\n\ncontract Sample {\n\n    uint public value;\n\n    function setValue(uint _value) public{\n        value = _value;\n    }\n\n    function getValue() public returns(uint){\n        return value;\n    }\n}",
  "sourcePath": "/Users/andy/evoting-private-chain/contracts/Sample.sol",
  "compiler": {
    "name": "solc",
    "version": "0.4.24+commit.e67f0147.Emscripten.clang"
  },
  "schemaVersion": "2.0.1",
  "updatedAt": "2019-05-07T07:07:21.883Z"
}