{
  "contractName": "Sample",
  "abi": [
    {
      "constant": true,
      "inputs": [
        {
          "name": "",
          "type": "uint256"
        }
      ],
      "name": "value",
      "outputs": [
        {
          "name": "",
          "type": "uint256"
        }
      ],
      "payable": false,
      "stateMutability": "view",
      "type": "function"
    },
    {
      "constant": true,
      "inputs": [
        {
          "name": "",
          "type": "uint256"
        }
      ],
      "name": "ballots",
      "outputs": [
        {
          "name": "",
          "type": "string"
        }
      ],
      "payable": false,
      "stateMutability": "view",
      "type": "function"
    },
    {
      "constant": true,
      "inputs": [
        {
          "name": "",
          "type": "address"
        }
      ],
      "name": "voteCount",
      "outputs": [
        {
          "name": "",
          "type": "uint256"
        }
      ],
      "payable": false,
      "stateMutability": "view",
      "type": "function"
    },
    {
      "constant": true,
      "inputs": [
        {
          "name": "",
          "type": "uint256"
        }
      ],
      "name": "inspectorAddress",
      "outputs": [
        {
          "name": "",
          "type": "address"
        }
      ],
      "payable": false,
      "stateMutability": "view",
      "type": "function"
    },
    {
      "constant": true,
      "inputs": [
        {
          "name": "",
          "type": "uint256"
        }
      ],
      "name": "voterAddressArray",
      "outputs": [
        {
          "name": "",
          "type": "address"
        }
      ],
      "payable": false,
      "stateMutability": "view",
      "type": "function"
    },
    {
      "constant": true,
      "inputs": [
        {
          "name": "",
          "type": "address"
        }
      ],
      "name": "ownerAddress",
      "outputs": [
        {
          "name": "",
          "type": "address"
        }
      ],
      "payable": false,
      "stateMutability": "view",
      "type": "function"
    },
    {
      "constant": true,
      "inputs": [
        {
          "name": "",
          "type": "address"
        }
      ],
      "name": "votes",
      "outputs": [
        {
          "name": "",
          "type": "string"
        }
      ],
      "payable": false,
      "stateMutability": "view",
      "type": "function"
    },
    {
      "constant": true,
      "inputs": [
        {
          "name": "_inspectorAddress",
          "type": "address"
        }
      ],
      "name": "end",
      "outputs": [
        {
          "name": "",
          "type": "bool"
        }
      ],
      "payable": false,
      "stateMutability": "view",
      "type": "function"
    },
    {
      "constant": false,
      "inputs": [
        {
          "name": "_voterAddress",
          "type": "address"
        }
      ],
      "name": "setVoterAddress",
      "outputs": [],
      "payable": false,
      "stateMutability": "nonpayable",
      "type": "function"
    },
    {
      "constant": false,
      "inputs": [
        {
          "name": "_inspectorAddress",
          "type": "address"
        }
      ],
      "name": "setInspectorAddress",
      "outputs": [],
      "payable": false,
      "stateMutability": "nonpayable",
      "type": "function"
    },
    {
      "constant": false,
      "inputs": [
        {
          "name": "_vote",
          "type": "string"
        }
      ],
      "name": "setVote",
      "outputs": [
        {
          "name": "",
          "type": "string[]"
        }
      ],
      "payable": false,
      "stateMutability": "nonpayable",
      "type": "function"
    },
    {
      "constant": false,
      "inputs": [],
      "name": "endVoting",
      "outputs": [],
      "payable": false,
      "stateMutability": "nonpayable",
      "type": "function"
    },
    {
      "constant": false,
      "inputs": [],
      "name": "getEndSign",
      "outputs": [
        {
          "name": "",
          "type": "bool"
        }
      ],
      "payable": false,
      "stateMutability": "nonpayable",
      "type": "function"
    },
    {
      "constant": false,
      "inputs": [],
      "name": "viewResult",
      "outputs": [
        {
          "name": "",
          "type": "string[]"
        }
      ],
      "payable": false,
      "stateMutability": "nonpayable",
      "type": "function"
    },
    {
      "constant": false,
      "inputs": [
        {
          "name": "_value",
          "type": "uint256"
        }
      ],
      "name": "setValue",
      "outputs": [],
      "payable": false,
      "stateMutability": "nonpayable",
      "type": "function"
    },
    {
      "constant": false,
      "inputs": [],
      "name": "getValue",
      "outputs": [
        {
          "name": "",
          "type": "uint256"
        }
      ],
      "payable": false,
      "stateMutability": "nonpayable",
      "type": "function"
    }
  ],
  "bytecode": "0x60806040526000600660006101000a81548160ff021916908315150217905550336000806101000a81548173ffffffffffffffffffffffffffffffffffffffff021916908373ffffffffffffffffffffffffffffffffffffffff1602179055506110848061006e6000396000f3fe6080604052600436106100e6576000357c0100000000000000000000000000000000000000000000000000000000900463ffffffff16806305ad9e29146100eb57806320965255146101165780633cff0380146101415780633fa4f2451461016c5780634ba5059c1461019757806355241077146101c05780635c632b38146101e95780635e3cd7bc14610226578063696f8c571461026357806371b7ddb81461028e5780638f84aa09146102cb578063c3403ddf146102f6578063d7b9377a1461030d578063d8bff5a514610336578063efbe1c1c14610373578063f1772a331461039e575b600080fd5b3480156100f757600080fd5b506101006103c7565b60405161010d9190610e52565b60405180910390f35b34801561012257600080fd5b5061012b6103de565b6040516101389190610eef565b60405180910390f35b34801561014d57600080fd5b506101566103e8565b6040516101639190610e30565b60405180910390f35b34801561017857600080fd5b50610181610519565b60405161018e9190610eef565b60405180910390f35b3480156101a357600080fd5b506101be60048036036101b99190810190610c0c565b61051f565b005b3480156101cc57600080fd5b506101e760048036036101e29190810190610c76565b6105f4565b005b3480156101f557600080fd5b50610210600480360361020b9190810190610c76565b6105fe565b60405161021d9190610e6d565b60405180910390f35b34801561023257600080fd5b5061024d60048036036102489190810190610c0c565b6106b9565b60405161025a9190610eef565b60405180910390f35b34801561026f57600080fd5b506102786106d1565b6040516102859190610e15565b60405180910390f35b34801561029a57600080fd5b506102b560048036036102b09190810190610c76565b6106f7565b6040516102c29190610e15565b60405180910390f35b3480156102d757600080fd5b506102e0610735565b6040516102ed9190610e15565b60405180910390f35b34801561030257600080fd5b5061030b61075a565b005b34801561031957600080fd5b50610334600480360361032f9190810190610c0c565b610777565b005b34801561034257600080fd5b5061035d60048036036103589190810190610c0c565b6107e0565b60405161036a9190610e6d565b60405180910390f35b34801561037f57600080fd5b50610388610890565b6040516103959190610e52565b60405180910390f35b3480156103aa57600080fd5b506103c560048036036103c09190810190610c35565b6108a3565b005b6000600660009054906101000a900460ff16905090565b6000600754905090565b60606000600380549050905060608160405190808252806020026020018201604052801561042a57816020015b60608152602001906001900390816104155790505b5090506003805480602002602001604051908101604052809291908181526020016000905b8282101561050b578382906000526020600020018054600181600116156101000203166002900480601f0160208091040260200160405190810160405280929190818152602001828054600181600116156101000203166002900480156104f75780601f106104cc576101008083540402835291602001916104f7565b820191906000526020600020905b8154815290600101906020018083116104da57829003601f168201915b50505050508152602001906001019061044f565b505050509050809250505090565b60075481565b6000809054906101000a900473ffffffffffffffffffffffffffffffffffffffff1673ffffffffffffffffffffffffffffffffffffffff163373ffffffffffffffffffffffffffffffffffffffff161415156105b0576040517f08c379a00000000000000000000000000000000000000000000000000000000081526004016105a790610e8f565b60405180910390fd5b80600160006101000a81548173ffffffffffffffffffffffffffffffffffffffff021916908373ffffffffffffffffffffffffffffffffffffffff16021790555050565b8060078190555050565b60038181548110151561060d57fe5b906000526020600020016000915090508054600181600116156101000203166002900480601f0160208091040260200160405190810160405280929190818152602001828054600181600116156101000203166002900480156106b15780601f10610686576101008083540402835291602001916106b1565b820191906000526020600020905b81548152906001019060200180831161069457829003601f168201915b505050505081565b60056020528060005260406000206000915090505481565b600160009054906101000a900473ffffffffffffffffffffffffffffffffffffffff1681565b60028181548110151561070657fe5b906000526020600020016000915054906101000a900473ffffffffffffffffffffffffffffffffffffffff1681565b6000809054906101000a900473ffffffffffffffffffffffffffffffffffffffff1681565b6001600660006101000a81548160ff021916908315150217905550565b60028190806001815401808255809150509060018203906000526020600020016000909192909190916101000a81548173ffffffffffffffffffffffffffffffffffffffff021916908373ffffffffffffffffffffffffffffffffffffffff1602179055505050565b60046020528060005260406000206000915090508054600181600116156101000203166002900480601f0160208091040260200160405190810160405280929190818152602001828054600181600116156101000203166002900480156108885780601f1061085d57610100808354040283529160200191610888565b820191906000526020600020905b81548152906001019060200180831161086b57829003601f168201915b505050505081565b600660009054906101000a900460ff1681565b60008090506000600560003373ffffffffffffffffffffffffffffffffffffffff1673ffffffffffffffffffffffffffffffffffffffff1681526020019081526020016000205414151561092c576040517f08c379a000000000000000000000000000000000000000000000000000000000815260040161092390610ecf565b60405180910390fd5b60008090505b6002805490508110156109be5760028181548110151561094e57fe5b9060005260206000200160009054906101000a900473ffffffffffffffffffffffffffffffffffffffff1673ffffffffffffffffffffffffffffffffffffffff163373ffffffffffffffffffffffffffffffffffffffff1614156109b157600191505b8080600101915050610932565b50600181141515610a04576040517f08c379a00000000000000000000000000000000000000000000000000000000081526004016109fb90610eaf565b60405180910390fd5b81600460003373ffffffffffffffffffffffffffffffffffffffff1673ffffffffffffffffffffffffffffffffffffffff1681526020019081526020016000209080519060200190610a57929190610ae9565b506001600560003373ffffffffffffffffffffffffffffffffffffffff1673ffffffffffffffffffffffffffffffffffffffff168152602001908152602001600020600082825401925050819055506003829080600181540180825580915050906001820390600052602060002001600090919290919091509080519060200190610ae3929190610ae9565b50505050565b828054600181600116156101000203166002900490600052602060002090601f016020900481019282601f10610b2a57805160ff1916838001178555610b58565b82800160010185558215610b58579182015b82811115610b57578251825591602001919060010190610b3c565b5b509050610b659190610b69565b5090565b610b8b91905b80821115610b87576000816000905550600101610b6f565b5090565b90565b6000610b9a8235610fdb565b905092915050565b600082601f8301121515610bb557600080fd5b8135610bc8610bc382610f37565b610f0a565b91508082526020830160208301858383011115610be457600080fd5b610bef838284610ff7565b50505092915050565b6000610c048235610fed565b905092915050565b600060208284031215610c1e57600080fd5b6000610c2c84828501610b8e565b91505092915050565b600060208284031215610c4757600080fd5b600082013567ffffffffffffffff811115610c6157600080fd5b610c6d84828501610ba2565b91505092915050565b600060208284031215610c8857600080fd5b6000610c9684828501610bf8565b91505092915050565b610ca881610f93565b82525050565b6000610cb982610f70565b80845260208401935083602082028501610cd285610f63565b60005b84811015610d0b578383038852610ced838351610d2b565b9250610cf882610f86565b9150602088019750600181019050610cd5565b508196508694505050505092915050565b610d2581610fa5565b82525050565b6000610d3682610f7b565b808452610d4a816020860160208601611006565b610d5381611039565b602085010191505092915050565b6000601482527f596f7520617265206e6f74206f776e65722021210000000000000000000000006020830152604082019050919050565b6000601982527f596f757220616464726573732069736e27742076616c69642e000000000000006020830152604082019050919050565b6000600e82527f446f75626c6520566f74696e672e0000000000000000000000000000000000006020830152604082019050919050565b610e0f81610fd1565b82525050565b6000602082019050610e2a6000830184610c9f565b92915050565b60006020820190508181036000830152610e4a8184610cae565b905092915050565b6000602082019050610e676000830184610d1c565b92915050565b60006020820190508181036000830152610e878184610d2b565b905092915050565b60006020820190508181036000830152610ea881610d61565b9050919050565b60006020820190508181036000830152610ec881610d98565b9050919050565b60006020820190508181036000830152610ee881610dcf565b9050919050565b6000602082019050610f046000830184610e06565b92915050565b6000604051905081810181811067ffffffffffffffff82111715610f2d57600080fd5b8060405250919050565b600067ffffffffffffffff821115610f4e57600080fd5b601f19601f8301169050602081019050919050565b6000602082019050919050565b600081519050919050565b600081519050919050565b6000602082019050919050565b6000610f9e82610fb1565b9050919050565b60008115159050919050565b600073ffffffffffffffffffffffffffffffffffffffff82169050919050565b6000819050919050565b6000610fe682610fb1565b9050919050565b6000819050919050565b82818337600083830152505050565b60005b83811015611024578082015181840152602081019050611009565b83811115611033576000848401525b50505050565b6000601f19601f830116905091905056fea265627a7a7230582026c7880406a2f6d89fe087e1268dcc16309e557b9cd8d31ac3b3d17be72de9916c6578706572696d656e74616cf50037",
  "source": "pragma solidity >0.4.99 <0.6.0;\npragma experimental ABIEncoderV2;\n\nimport \"./Owned.sol\";\n\ncontract Sample is Owned {\n    address public inspectorAddress;\n    address[] public voterAddressArray;\n    string[] public ballots;\n    mapping(address => string) public votes;\n    mapping(address => uint) public voteCount;\n    bool public end = false;\n\n    uint public value;\n\n    // set voter address\n    function setVoterAddress(address _voterAddress) public {\n        //TODO:onlyOwner\n        voterAddressArray.push(_voterAddress);\n    }\n\n    // set inspector address\n    function setInspectorAddress(address _inspectorAddress) public onlyOwner {\n        //TODO:onlyOwner\n        inspectorAddress = _inspectorAddress;\n    }\n\n    // create and send vote\n    function setVote(string memory _vote) public {\n        // 二重投票防止とアドレス選定\n        uint flag = 0;\n        require(voteCount[msg.sender] == 0, \"Double Voting.\");\n        for(uint i = 0; i < voterAddressArray.length; i++){\n            if(msg.sender == voterAddressArray[i]){\n                flag = 1;\n            }\n        }\n        require(flag == 1, \"Your address isn't valid.\");\n        votes[msg.sender] = _vote;\n        voteCount[msg.sender] += 1;\n        ballots.push(_vote);\n    }\n\n    // sign by organizer\n    // sign by inspector\n    // view result\n    // function viewResultTest() public returns(string memory){\n    //     return \"result\";\n    // }\n\n    function endVoting() public {\n        //TODO: onlyOwnerをつけること\n        end = true;\n    }\n\n    function getEndSign() public returns(bool){\n        return end;\n    }\n\n    function viewResult() public returns(string[] memory){\n        //TODO:テスト省略のためにrequireを外しているので注意\n        // require(end == true, \"Voting is not END.\");\n        uint array_length = ballots.length;\n        string[] memory arrayMemory = new string[](array_length);\n        arrayMemory = ballots;\n\n        return arrayMemory;\n    }\n\n    function setValue(uint _value) public{\n        value = _value;\n    }\n\n    function getValue() public returns(uint){\n        return value;\n    }\n\n\n\n}",
  "sourcePath": "/Users/andy/evoting-private-chain/contracts/Sample.sol",
  "compiler": {
    "name": "solc",
    "version": "0.5.0+commit.1d4f565a.Emscripten.clang"
  },
  "schemaVersion": "3.0.9",
  "updatedAt": "2019-05-10T17:08:27.080Z",
  "devdoc": {
    "methods": {}
  },
  "userdoc": {
    "methods": {}
  }
}