{
  "contractName": "Sample",
  "abi": [
    {
      "constant": true,
      "inputs": [],
      "name": "value",
      "outputs": [
        {
          "name": "",
          "type": "uint256"
        }
      ],
      "payable": false,
      "stateMutability": "view",
      "type": "function"
    },
    {
      "constant": true,
      "inputs": [
        {
          "name": "",
          "type": "uint256"
        }
      ],
      "name": "ballots",
      "outputs": [
        {
          "name": "",
          "type": "string"
        }
      ],
      "payable": false,
      "stateMutability": "view",
      "type": "function"
    },
    {
      "constant": true,
      "inputs": [
        {
          "name": "",
          "type": "address"
        }
      ],
      "name": "voteCount",
      "outputs": [
        {
          "name": "",
          "type": "uint256"
        }
      ],
      "payable": false,
      "stateMutability": "view",
      "type": "function"
    },
    {
      "constant": true,
      "inputs": [],
      "name": "inspectorAddress",
      "outputs": [
        {
          "name": "",
          "type": "address"
        }
      ],
      "payable": false,
      "stateMutability": "view",
      "type": "function"
    },
    {
      "constant": true,
      "inputs": [
        {
          "name": "",
          "type": "uint256"
        }
      ],
      "name": "voterAddressArray",
      "outputs": [
        {
          "name": "",
          "type": "address"
        }
      ],
      "payable": false,
      "stateMutability": "view",
      "type": "function"
    },
    {
      "constant": true,
      "inputs": [],
      "name": "ownerAddress",
      "outputs": [
        {
          "name": "",
          "type": "address"
        }
      ],
      "payable": false,
      "stateMutability": "view",
      "type": "function"
    },
    {
      "constant": true,
      "inputs": [
        {
          "name": "",
          "type": "address"
        }
      ],
      "name": "votes",
      "outputs": [
        {
          "name": "",
          "type": "string"
        }
      ],
      "payable": false,
      "stateMutability": "view",
      "type": "function"
    },
    {
      "constant": true,
      "inputs": [],
      "name": "end",
      "outputs": [
        {
          "name": "",
          "type": "bool"
        }
      ],
      "payable": false,
      "stateMutability": "view",
      "type": "function"
    },
    {
      "constant": false,
      "inputs": [
        {
          "name": "_voterAddress",
          "type": "address"
        }
      ],
      "name": "setVoterAddress",
      "outputs": [],
      "payable": false,
      "stateMutability": "nonpayable",
      "type": "function"
    },
    {
      "constant": false,
      "inputs": [
        {
          "name": "_inspectorAddress",
          "type": "address"
        }
      ],
      "name": "setInspectorAddress",
      "outputs": [],
      "payable": false,
      "stateMutability": "nonpayable",
      "type": "function"
    },
    {
      "constant": false,
      "inputs": [
        {
          "name": "_a",
          "type": "string"
        },
        {
          "name": "_b",
          "type": "string"
        }
      ],
      "name": "strConnect",
      "outputs": [
        {
          "name": "",
          "type": "string"
        }
      ],
      "payable": false,
      "stateMutability": "nonpayable",
      "type": "function"
    },
    {
      "constant": false,
      "inputs": [
        {
          "name": "x",
          "type": "address"
        }
      ],
      "name": "toString",
      "outputs": [
        {
          "name": "",
          "type": "string"
        }
      ],
      "payable": false,
      "stateMutability": "nonpayable",
      "type": "function"
    },
    {
      "constant": false,
      "inputs": [
        {
          "name": "a",
          "type": "address"
        }
      ],
      "name": "toBytes",
      "outputs": [
        {
          "name": "",
          "type": "bytes"
        }
      ],
      "payable": false,
      "stateMutability": "nonpayable",
      "type": "function"
    },
    {
      "constant": false,
      "inputs": [
        {
          "name": "x",
          "type": "bytes32"
        }
      ],
      "name": "bytes32ToString",
      "outputs": [
        {
          "name": "",
          "type": "string"
        }
      ],
      "payable": false,
      "stateMutability": "nonpayable",
      "type": "function"
    },
    {
      "constant": false,
      "inputs": [
        {
          "name": "_vote",
          "type": "string"
        }
      ],
      "name": "setVote",
      "outputs": [],
      "payable": false,
      "stateMutability": "nonpayable",
      "type": "function"
    },
    {
      "constant": false,
      "inputs": [],
      "name": "endVoting",
      "outputs": [],
      "payable": false,
      "stateMutability": "nonpayable",
      "type": "function"
    },
    {
      "constant": false,
      "inputs": [],
      "name": "getEndSign",
      "outputs": [
        {
          "name": "",
          "type": "bool"
        }
      ],
      "payable": false,
      "stateMutability": "nonpayable",
      "type": "function"
    },
    {
      "constant": false,
      "inputs": [],
      "name": "viewResult",
      "outputs": [
        {
          "name": "",
          "type": "string[]"
        }
      ],
      "payable": false,
      "stateMutability": "nonpayable",
      "type": "function"
    },
    {
      "constant": false,
      "inputs": [
        {
          "name": "_value",
          "type": "uint256"
        }
      ],
      "name": "setValue",
      "outputs": [],
      "payable": false,
      "stateMutability": "nonpayable",
      "type": "function"
    },
    {
      "constant": false,
      "inputs": [],
      "name": "getValue",
      "outputs": [
        {
          "name": "",
          "type": "uint256"
        }
      ],
      "payable": false,
      "stateMutability": "nonpayable",
      "type": "function"
    }
  ],
  "bytecode": "0x608060405260408051908101604052806040805190810160405280600581526020017f746573743100000000000000000000000000000000000000000000000000000081525081526020016040805190810160405280600581526020017f7465737432000000000000000000000000000000000000000000000000000000815250815250600390600262000095929190620000f7565b506000600660006101000a81548160ff021916908315150217905550336000806101000a81548173ffffffffffffffffffffffffffffffffffffffff021916908373ffffffffffffffffffffffffffffffffffffffff1602179055506200028a565b8280548282559060005260206000209081019282156200014b579160200282015b828111156200014a578251829080519060200190620001399291906200015e565b509160200191906001019062000118565b5b5090506200015a9190620001e5565b5090565b828054600181600116156101000203166002900490600052602060002090601f016020900481019282601f10620001a157805160ff1916838001178555620001d2565b82800160010185558215620001d2579182015b82811115620001d1578251825591602001919060010190620001b4565b5b509050620001e1919062000216565b5090565b6200021391905b808211156200020f57600081816200020591906200023e565b50600101620001ec565b5090565b90565b6200023b91905b80821115620002375760008160009055506001016200021d565b5090565b90565b50805460018160011615610100020316600290046000825580601f1062000266575062000287565b601f01602090049060005260206000209081019062000286919062000216565b5b50565b611bfd806200029a6000396000f3fe608060405260043610610112576000357c0100000000000000000000000000000000000000000000000000000000900463ffffffff16806305ad9e2914610117578063209652551461014257806330f8ca831461016d5780633cff0380146101aa5780633fa4f245146101d55780634ba5059c14610200578063552410771461022957806356ca623e14610252578063593b79fe1461028f5780635c632b38146102cc5780635e3cd7bc14610309578063696f8c571461034657806371b7ddb8146103715780638f84aa09146103ae5780639201de55146103d9578063c3403ddf14610416578063d7b9377a1461042d578063d8bff5a514610456578063efbe1c1c14610493578063f1772a33146104be575b600080fd5b34801561012357600080fd5b5061012c6104e7565b6040516101399190611927565b60405180910390f35b34801561014e57600080fd5b506101576104fe565b6040516101649190611a48565b60405180910390f35b34801561017957600080fd5b50610194600480360361018f9190810190611605565b610508565b6040516101a19190611986565b60405180910390f35b3480156101b657600080fd5b506101bf6106f7565b6040516101cc9190611905565b60405180910390f35b3480156101e157600080fd5b506101ea610880565b6040516101f79190611a48565b60405180910390f35b34801561020c57600080fd5b5061022760048036036102229190810190611572565b610886565b005b34801561023557600080fd5b50610250600480360361024b9190810190611671565b6109b3565b005b34801561025e57600080fd5b5061027960048036036102749190810190611572565b6109bd565b6040516102869190611986565b60405180910390f35b34801561029b57600080fd5b506102b660048036036102b19190810190611572565b610aa8565b6040516102c39190611942565b60405180910390f35b3480156102d857600080fd5b506102f360048036036102ee9190810190611671565b610b0c565b6040516103009190611964565b60405180910390f35b34801561031557600080fd5b50610330600480360361032b9190810190611572565b610bc7565b60405161033d9190611a48565b60405180910390f35b34801561035257600080fd5b5061035b610bdf565b60405161036891906118ea565b60405180910390f35b34801561037d57600080fd5b5061039860048036036103939190810190611671565b610c05565b6040516103a591906118ea565b60405180910390f35b3480156103ba57600080fd5b506103c3610c43565b6040516103d091906118ea565b60405180910390f35b3480156103e557600080fd5b5061040060048036036103fb919081019061159b565b610c68565b60405161040d9190611986565b60405180910390f35b34801561042257600080fd5b5061042b610e65565b005b34801561043957600080fd5b50610454600480360361044f9190810190611572565b610f6b565b005b34801561046257600080fd5b5061047d60048036036104789190810190611572565b6110bd565b60405161048a9190611964565b60405180910390f35b34801561049f57600080fd5b506104a861116d565b6040516104b59190611927565b60405180910390f35b3480156104ca57600080fd5b506104e560048036036104e091908101906115c4565b611180565b005b6000600660009054906101000a900460ff16905090565b6000600754905090565b606080839050606083905060608290506060829050606081518351016040519080825280601f01601f1916602001820160405280156105565781602001600182028038833980820191505090505b509050600080905060008090505b84518160ff16101561062257848160ff1681518110151561058157fe5b9060200101517f010000000000000000000000000000000000000000000000000000000000000090047f010000000000000000000000000000000000000000000000000000000000000002838360ff168151811015156105dd57fe5b9060200101907effffffffffffffffffffffffffffffffffffffffffffffffffffffffffffff1916908160001a90535081806001019250508080600101915050610564565b5060008090505b83518160ff1610156106e757838160ff1681518110151561064657fe5b9060200101517f010000000000000000000000000000000000000000000000000000000000000090047f010000000000000000000000000000000000000000000000000000000000000002838360ff168151811015156106a257fe5b9060200101907effffffffffffffffffffffffffffffffffffffffffffffffffffffffffffff1916908160001a90535081806001019250508080600101915050610629565b5081965050505050505092915050565b606060011515600660009054906101000a900460ff161515141515610751576040517f08c379a000000000000000000000000000000000000000000000000000000000815260040161074890611a28565b60405180910390fd5b6000600380549050905060608160405190808252806020026020018201604052801561079157816020015b606081526020019060019003908161077c5790505b5090506003805480602002602001604051908101604052809291908181526020016000905b82821015610872578382906000526020600020018054600181600116156101000203166002900480601f01602080910402602001604051908101604052809291908181526020018280546001816001161561010002031660029004801561085e5780601f106108335761010080835404028352916020019161085e565b820191906000526020600020905b81548152906001019060200180831161084157829003601f168201915b5050505050815260200190600101906107b6565b505050509050809250505090565b60075481565b6000809054906101000a900473ffffffffffffffffffffffffffffffffffffffff1673ffffffffffffffffffffffffffffffffffffffff163373ffffffffffffffffffffffffffffffffffffffff16141515610917576040517f08c379a000000000000000000000000000000000000000000000000000000000815260040161090e906119c8565b60405180910390fd5b60001515600660009054906101000a900460ff16151514151561096f576040517f08c379a0000000000000000000000000000000000000000000000000000000008152600401610966906119a8565b60405180910390fd5b80600160006101000a81548173ffffffffffffffffffffffffffffffffffffffff021916908373ffffffffffffffffffffffffffffffffffffffff16021790555050565b8060078190555050565b60608060146040519080825280601f01601f1916602001820160405280156109f45781602001600182028038833980820191505090505b50905060008090505b6014811015610a9e578060130360080260020a8473ffffffffffffffffffffffffffffffffffffffff16811515610a3057fe5b047f0100000000000000000000000000000000000000000000000000000000000000028282815181101515610a6157fe5b9060200101907effffffffffffffffffffffffffffffffffffffffffffffffffffffffffffff1916908160001a90535080806001019150506109fd565b5080915050919050565b606081604051602001808273ffffffffffffffffffffffffffffffffffffffff1673ffffffffffffffffffffffffffffffffffffffff166c010000000000000000000000000281526014019150506040516020818303038152906040529050919050565b600381815481101515610b1b57fe5b906000526020600020016000915090508054600181600116156101000203166002900480601f016020809104026020016040519081016040528092919081815260200182805460018160011615610100020316600290048015610bbf5780601f10610b9457610100808354040283529160200191610bbf565b820191906000526020600020905b815481529060010190602001808311610ba257829003601f168201915b505050505081565b60056020528060005260406000206000915090505481565b600160009054906101000a900473ffffffffffffffffffffffffffffffffffffffff1681565b600281815481101515610c1457fe5b906000526020600020016000915054906101000a900473ffffffffffffffffffffffffffffffffffffffff1681565b6000809054906101000a900473ffffffffffffffffffffffffffffffffffffffff1681565b60608060206040519080825280601f01601f191660200182016040528015610c9f5781602001600182028038833980820191505090505b509050600080905060008090505b6020811015610d6e5760008160080260020a866001900402600102905060007f010000000000000000000000000000000000000000000000000000000000000002817effffffffffffffffffffffffffffffffffffffffffffffffffffffffffffff1916141515610d6057808484815181101515610d2757fe5b9060200101907effffffffffffffffffffffffffffffffffffffffffffffffffffffffffffff1916908160001a90535082806001019350505b508080600101915050610cad565b506060816040519080825280601f01601f191660200182016040528015610da45781602001600182028038833980820191505090505b50905060008090505b82811015610e59578381815181101515610dc357fe5b9060200101517f010000000000000000000000000000000000000000000000000000000000000090047f0100000000000000000000000000000000000000000000000000000000000000028282815181101515610e1c57fe5b9060200101907effffffffffffffffffffffffffffffffffffffffffffffffffffffffffffff1916908160001a9053508080600101915050610dad565b50809350505050919050565b6000809054906101000a900473ffffffffffffffffffffffffffffffffffffffff1673ffffffffffffffffffffffffffffffffffffffff163373ffffffffffffffffffffffffffffffffffffffff16141515610ef6576040517f08c379a0000000000000000000000000000000000000000000000000000000008152600401610eed906119c8565b60405180910390fd5b60001515600660009054906101000a900460ff161515141515610f4e576040517f08c379a0000000000000000000000000000000000000000000000000000000008152600401610f45906119a8565b60405180910390fd5b6001600660006101000a81548160ff021916908315150217905550565b6000809054906101000a900473ffffffffffffffffffffffffffffffffffffffff1673ffffffffffffffffffffffffffffffffffffffff163373ffffffffffffffffffffffffffffffffffffffff16141515610ffc576040517f08c379a0000000000000000000000000000000000000000000000000000000008152600401610ff3906119c8565b60405180910390fd5b60001515600660009054906101000a900460ff161515141515611054576040517f08c379a000000000000000000000000000000000000000000000000000000000815260040161104b906119a8565b60405180910390fd5b60028190806001815401808255809150509060018203906000526020600020016000909192909190916101000a81548173ffffffffffffffffffffffffffffffffffffffff021916908373ffffffffffffffffffffffffffffffffffffffff1602179055505050565b60046020528060005260406000206000915090508054600181600116156101000203166002900480601f0160208091040260200160405190810160405280929190818152602001828054600181600116156101000203166002900480156111655780601f1061113a57610100808354040283529160200191611165565b820191906000526020600020905b81548152906001019060200180831161114857829003601f168201915b505050505081565b600660009054906101000a900460ff1681565b60001515600660009054906101000a900460ff1615151415156111d8576040517f08c379a00000000000000000000000000000000000000000000000000000000081526004016111cf906119a8565b60405180910390fd5b60008090506000600560003373ffffffffffffffffffffffffffffffffffffffff1673ffffffffffffffffffffffffffffffffffffffff16815260200190815260200160002054141515611261576040517f08c379a000000000000000000000000000000000000000000000000000000000815260040161125890611a08565b60405180910390fd5b60008090505b6002805490508110156112f35760028181548110151561128357fe5b9060005260206000200160009054906101000a900473ffffffffffffffffffffffffffffffffffffffff1673ffffffffffffffffffffffffffffffffffffffff163373ffffffffffffffffffffffffffffffffffffffff1614156112e657600191505b8080600101915050611267565b50600181141515611339576040517f08c379a0000000000000000000000000000000000000000000000000000000008152600401611330906119e8565b60405180910390fd5b81600460003373ffffffffffffffffffffffffffffffffffffffff1673ffffffffffffffffffffffffffffffffffffffff168152602001908152602001600020908051906020019061138c92919061143b565b506001600560003373ffffffffffffffffffffffffffffffffffffffff1673ffffffffffffffffffffffffffffffffffffffff1681526020019081526020016000206000828254019250508190555060606113e6336109bd565b905060606113f48483610508565b9050600381908060018154018082558091505090600182039060005260206000200160009091929091909150908051906020019061143392919061143b565b505050505050565b828054600181600116156101000203166002900490600052602060002090601f016020900481019282601f1061147c57805160ff19168380011785556114aa565b828001600101855582156114aa579182015b828111156114a957825182559160200191906001019061148e565b5b5090506114b791906114bb565b5090565b6114dd91905b808211156114d95760008160009055506001016114c1565b5090565b90565b60006114ec8235611b4a565b905092915050565b60006115008235611b5c565b905092915050565b600082601f830112151561151b57600080fd5b813561152e61152982611a90565b611a63565b9150808252602083016020830185838301111561154a57600080fd5b611555838284611b70565b50505092915050565b600061156a8235611b66565b905092915050565b60006020828403121561158457600080fd5b6000611592848285016114e0565b91505092915050565b6000602082840312156115ad57600080fd5b60006115bb848285016114f4565b91505092915050565b6000602082840312156115d657600080fd5b600082013567ffffffffffffffff8111156115f057600080fd5b6115fc84828501611508565b91505092915050565b6000806040838503121561161857600080fd5b600083013567ffffffffffffffff81111561163257600080fd5b61163e85828601611508565b925050602083013567ffffffffffffffff81111561165b57600080fd5b61166785828601611508565b9150509250929050565b60006020828403121561168357600080fd5b60006116918482850161155e565b91505092915050565b6116a381611b02565b82525050565b60006116b482611ac9565b808452602084019350836020820285016116cd85611abc565b60005b848110156117065783830388526116e8838351611792565b92506116f382611af5565b91506020880197506001810190506116d0565b508196508694505050505092915050565b61172081611b14565b82525050565b600061173182611ad4565b808452611745816020860160208601611b7f565b61174e81611bb2565b602085010191505092915050565b600061176782611aea565b80845261177b816020860160208601611b7f565b61178481611bb2565b602085010191505092915050565b600061179d82611adf565b8084526117b1816020860160208601611b7f565b6117ba81611bb2565b602085010191505092915050565b6000600d82527f766f74696e6720697320656e64000000000000000000000000000000000000006020830152604082019050919050565b6000601482527f596f7520617265206e6f74206f776e65722021210000000000000000000000006020830152604082019050919050565b6000601982527f596f757220616464726573732069736e27742076616c69642e000000000000006020830152604082019050919050565b6000600e82527f446f75626c6520566f74696e672e0000000000000000000000000000000000006020830152604082019050919050565b6000601282527f566f74696e67206973206e6f7420454e442e00000000000000000000000000006020830152604082019050919050565b6118e481611b40565b82525050565b60006020820190506118ff600083018461169a565b92915050565b6000602082019050818103600083015261191f81846116a9565b905092915050565b600060208201905061193c6000830184611717565b92915050565b6000602082019050818103600083015261195c8184611726565b905092915050565b6000602082019050818103600083015261197e8184611792565b905092915050565b600060208201905081810360008301526119a0818461175c565b905092915050565b600060208201905081810360008301526119c1816117c8565b9050919050565b600060208201905081810360008301526119e1816117ff565b9050919050565b60006020820190508181036000830152611a0181611836565b9050919050565b60006020820190508181036000830152611a218161186d565b9050919050565b60006020820190508181036000830152611a41816118a4565b9050919050565b6000602082019050611a5d60008301846118db565b92915050565b6000604051905081810181811067ffffffffffffffff82111715611a8657600080fd5b8060405250919050565b600067ffffffffffffffff821115611aa757600080fd5b601f19601f8301169050602081019050919050565b6000602082019050919050565b600081519050919050565b600081519050919050565b600081519050919050565b600081519050919050565b6000602082019050919050565b6000611b0d82611b20565b9050919050565b60008115159050919050565b600073ffffffffffffffffffffffffffffffffffffffff82169050919050565b6000819050919050565b6000611b5582611b20565b9050919050565b6000819050919050565b6000819050919050565b82818337600083830152505050565b60005b83811015611b9d578082015181840152602081019050611b82565b83811115611bac576000848401525b50505050565b6000601f19601f830116905091905056fea265627a7a72305820797a24dac56eca7446cdcd9e3a4ddbd4e73377bc426f6c88a09814e9e57cd4606c6578706572696d656e74616cf50037",
  "source": "pragma solidity >0.4.99 <0.6.0;\npragma experimental ABIEncoderV2;\n\nimport \"./Owned.sol\";\n\ncontract Sample is Owned {\n    address public inspectorAddress;\n    address[] public voterAddressArray;\n    string[] public ballots = [\"test1\",\"test2\"];\n    mapping(address => string) public votes;\n    mapping(address => uint) public voteCount;\n    bool public end = false;\n\n    uint public value;\n\n    //TODO:\n    modifier isVotingEnd(){\n        require(end == false, \"voting is end\");\n        _;\n    }\n\n    // struct BallotResult {\n    //     address voterAddress;\n    //     string v;\n    // }\n\n    // BallotResult[] public BallotResults;\n\n    function concat(bytes memory a, bytes memory b) internal pure returns (bytes memory) {\n        return abi.encodePacked(a, b);\n    }\n\n    // set voter address\n    function setVoterAddress(address _voterAddress) onlyOwner isVotingEnd public {\n        //TODO:onlyOwner\n        voterAddressArray.push(_voterAddress);\n    }\n\n    // set inspector address\n    function setInspectorAddress(address _inspectorAddress) onlyOwner isVotingEnd public {\n        //TODO:onlyOwner\n        inspectorAddress = _inspectorAddress;\n    }\n\n    // \n    function strConnect(string memory _a, string memory _b) public  returns(string memory){\n\n        string memory str1 = _a;\n        string memory str2 = _b;\n        bytes memory strbyte1 = bytes(str1);\n        bytes memory strbyte2 = bytes(str2);\n\n        bytes memory str = new bytes(strbyte1.length + strbyte2.length);\n\n        uint8 point = 0;\n\n        for(uint8 j = 0; j < strbyte1.length;j++){\n            str[point] = strbyte1[j];\n            point++;\n        }\n        for(uint8 k = 0; k < strbyte2.length;k++){\n            str[point] = strbyte2[k];\n            point++;\n        }\n        return string(str);\n    }\n\n    // byte\n    function toString(address x) public returns (string memory) {\n        bytes memory b = new bytes(20);\n        for (uint i = 0; i < 20; i++)\n            b[i] = byte(uint8(uint(x) / (2**(8*(19 - i)))));\n        return string(b);\n    }\n\n    function toBytes(address a) public returns (bytes memory ) {\n        // assembly {\n        //     let m := mload(0x40)\n        //     a := and(a, 0xFFFFFFFFFFFFFFFFFFFFFFFFFFFFFFFFFFFFFFFF)\n        //     mstore(add(m, 20), xor(0x140000000000000000000000000000000000000000, a))\n        //     mstore(0x40, add(m, 52))\n        //     b := m\n        // }\n        return abi.encodePacked(a);\n    }\n\n\n    function bytes32ToString(bytes32 x) public returns (string memory) {\n        bytes memory bytesString = new bytes(32);\n        uint charCount = 0;\n        for (uint j = 0; j < 32; j++) {\n            byte char = byte(bytes32(uint(x) * 2 ** (8 * j)));\n            if (char != 0) {\n                bytesString[charCount] = char;\n                charCount++;\n            }\n        }\n        bytes memory bytesStringTrimmed = new bytes(charCount);\n        for (uint i = 0; i < charCount; i++) {\n            bytesStringTrimmed[i] = bytesString[i];\n        }\n        return string(bytesStringTrimmed);\n    }\n\n    // create and send vote\n    function setVote(string memory _vote) public isVotingEnd {\n        // \n        uint flag = 0;\n        require(voteCount[msg.sender] == 0, \"Double Voting.\");\n        for(uint i = 0; i < voterAddressArray.length; i++){\n            if(msg.sender == voterAddressArray[i]){\n                flag = 1;\n            }\n        }\n        require(flag == 1, \"Your address isn't valid.\");\n        votes[msg.sender] = _vote;\n        voteCount[msg.sender] += 1;\n        // bytes memory addr_temp = toBytes(msg.sender);\n\n        string memory addr = toString(msg.sender);\n        string memory res = strConnect(_vote, addr);\n        ballots.push(res);\n        // ballots.push(_vote);\n        // BallotResults.push(BallotResult(msg.sender, _vote));\n    }\n\n    function endVoting()  onlyOwner isVotingEnd public {\n        //TODO: onlyOwner\n        end = true;\n    }\n\n    function getEndSign() public returns(bool){\n        return end;\n    }\n\n    function viewResult() public  returns(string[] memory){\n        //TODO:require\n        require(end == true, \"Voting is not END.\");\n        //TODO:\n        //TODO:\n        // require(voteCount[msg.sender] == 1, \"You should vote.\");\n        uint array_length = ballots.length;\n        string[] memory arrayMemory = new string[](array_length);\n        arrayMemory = ballots;\n\n        return arrayMemory;\n    }\n\n    function setValue(uint _value) public{\n        value = _value;\n    }\n\n    function getValue() public returns(uint){\n        return value;\n    }\n\n    // function getBallotResults(uint _index) public returns(address, uint){\n    //     return (BallotResults)\n    // }\n}\n",
  "sourcePath": "/Users/andy/evoting-private-chain/contracts/Sample.sol",
  "compiler": {
    "name": "solc",
    "version": "0.5.0+commit.1d4f565a.Emscripten.clang"
  },
  "schemaVersion": "3.0.9",
  "updatedAt": "2019-08-06T16:04:29.421Z",
  "devdoc": {
    "methods": {}
  },
  "userdoc": {
    "methods": {}
  }
}